:100000000C946C020C94B3020C94B3020C94B302E3
:100010000C94B3020C94B3020C94B3020C94B3028C
:100020000C94B3020C94B3020C94691C0C943C1D08
:100030000C94DC130C94B3020C94B3020C94B30232
:100040000C94B3020C94B3020C94B3020C94B3025C
:100050000C94B3020C9444140C94B3020C94B302A9
:100060000C94B3020C94B3020C94B3020C94B3023C
:100070000C94B3020C94B3020C94B3020C94B3022C
:100080000C94B3020C94B3020C94B3020C94B3021C
:100090000C94B3020C94B3020C94B3020C94B3020C
:1000A0000C94B3020C94B3020C94B30253005400AA
:1000B000550056005F006000610057005C005D0065
:1000C0005E00000059005A005B005800620000000A
:1000D00063000000010001000100010001000100B7
:1000E0000100010001000100010001000100010008
:1000F00001000100010001000100010001000100F8
:1001000001000100010001000100010001000100E7
:1001100001000100010001000100010001000100D7
:1003200001000100010001000100010012036B0047
:100330006500790062006F006100720064000000D7
:10034000160371006D006B006200750069006C009F
:1003500064006500720000000403090409026D00D6
:10036000040100A0FA0904000001030101000921B1
:10037000110100012240000705810308000A090459
:1003800001000103010200092111010001224D00B9
:100390000705820308000A090402000103000000A7
:1003A0000921110100012236000705830308000A14
:1003B00009040300010300000009211101000122CA
:1003C000390007058403200001120110010000001C
:1003D00008EDFE606001000102000105010906A1AF
:1003E00001050719E029E715002501950875018128
:1003F00002050819012905950575019102950175F8
:100400000391010507190029F71500250195F875D5
:10041000018102C005010980A101850216010026A3
:1004200003001A81002A8300751095018100C00520
:100430000C0901A1018503160100269C021A010086
:100440002A9C02751095018100C005010902A101D5
:100450000901A100050919012905150025019505C6
:10046000750181029501750381010501093009318A
:100470001581257F95027508810609381581257F2C
:10048000950175088106050C0A38021581257F95AE
:100490000175088106C0C005010906A101050719FB
:1004A000E029E71500250195087501810295017580
:1004B0000881010508190129059505750191029525
:1004C00001750391010507190029FF150026FF009A
:1004D000950675088100C00011241FBECFEFDAE039
:1004E000DEBFCDBF04B603FE27C0809110029091FD
:1004F0001102A0911202B09113028730904BA740D5
:10050000B04BD1F41092100210921102109212020C
:100510001092130214BE84B7877F84BF0FB6F8947D
:10052000A8958091600088618093600010926000BF
:100530000FBEE0E0F8E3099511E0A0E0B1E0E0E0F3
:10054000F1E402C005900D92A033B107D9F722E083
:10055000A0E3B1E001C01D92A031B207E1F70E9413
:10056000B8190C947E200C94000090E080E008956F
:100570000895089581E0089580FF03C03F9A479849
:1005800008953F98FCCF81E008950C94BA020E9430
:10059000580C2FEF84E39CE0215080409040E1F71D
:1005A00000C000000C946914FF920F931F93CF9327
:1005B000DF938C01FC01C081D18180915B018111AD
:1005C0003FC082818823B9F1CE010E94BD11F82E6F
:1005D000682FCE010E946511BE018F2D0E941B0461
:1005E000EC01B8010E94C502882309F44AC0B80191
:1005F000CE010E942B06882309F443C0C531F0E7E1
:10060000DF0718F5C23080E7D80708F04BC0C115E6
:10061000E0E7DE0789F1C130D047D1F181E0809376
:10062000320180933301C801DF91CF911F910F9167
:10063000FF900C94C302CE010E949311F82ECCCFF0
:10064000CE010E94BD11BE01C9CFCC3380E7D807CF
:1006500009F4ACC0CD33D04709F7F8018281882373
:1006600009F4CBC0109233010E940E149093310113
:100670008093300180E2A7C0F801828181110E943D
:10068000C70280E0DF91CF911F910F91FF900895F5
:10069000F80182818823A9F38091D0018160809341
:1006A000D001EFCFF8018281882309F4BCCF0E94EA
:1006B0006E13811102C00E9454130E948B1390E0AC
:1006C0009093020280930102FE01E350F047809173
:1006D00001028160E231F105C8F4EF58FC4F0C943F
:1006E0002E2083038F03930397039B039F03A3038E
:1006F000A703AB03AF03B303B703BB03BF03C3033A
:10070000C703CB03CF038091010282608093010273
:10071000809101020E948F130E94580CB2CF8091E9
:1007200001028460F3CF809101028860EFCF809155
:1007300001028061EBCF809101028062E7CF80915E
:1007400001028064E3CF809101028068DFCF809155
:1007500001028460EACF809101028E7FD7CF809121
:1007600001028D7FD3CF809101028B7FCFCF80910B
:100770000102877FCBCF809101028F7EC7CF80910E
:1007800001028F7DC3CF809101028F7BBFCF80910B
:1007900001028F77BBCF809101028B7FEACF9091CE
:1007A0000102892F97FB87F98058B0CFF801828129
:1007B000882361F0109232010E940E14909331014F
:1007C0008093300182E00E94E2095BCF8091320188
:1007D00081110FC080913001909131010E941A1453
:1007E000883C910530F486E20E94B70886E20E94B8
:1007F000930982E00E94E90944CF8091330181117D
:100800000FC080913001909131010E941A14883CF0
:10081000910530F487E20E94B70887E20E949309AD
:1008200080E2E8CF0C947A060C947C060C94BC020F
:100830000C9416040895E72FF0E095E0899FE00DF1
:10084000F11D1124EE0FFF1FEE0FFF1FE60FF11D2C
:10085000EE0FFF1FE455FF4F859194910895FC0121
:10086000EE0FFF1FE45DFC4F8591949108950E9467
:100870001B040E94AA05811520E4920708F08DC090
:10088000811540E3940708F0E8C0803E910508F028
:1008900071C0803C910508F0CCC0883A910580F485
:1008A000853A910508F0CAC08130910509F46EC0FF
:1008B00020F08430910508F069C090E080E0089550
:1008C0008D3B9105D0F7883A910509F404C1893A26
:1008D000910509F403C18A3A910509F402C18B3AE2
:1008E000910509F401C18C3A910509F400C18B3BD3
:1008F000910509F4FFC08C3B910509F4FEC08D3AC7
:10090000910509F4FDC0803B910509F4FCC08E3AC5
:10091000910509F4FBC08F3A910509F4FAC0813BB7
:10092000910509F4F9C0823B910509F4F8C0833BB5
:10093000910509F4F7C0843B910509F4F6C0853BA5
:10094000910509F4F5C0863B910509F4F4C0873B95
:10095000910509F4F3C0883B910509F4F2C0893B85
:10096000910509F4F1C08A3B910509F4F0C080E0DB
:1009700094E408958F3F910509F048F4803F910574
:1009800008F067C0883E910508F097CF089581155B
:1009900020E2920708F05FC00895811543E59407AF
:1009A00060F5811522E5920708F062C0811541E5E6
:1009B000940708F058C0811520E5920708F450C04C
:1009C0009C0154E0369527955A95E1F7922F937044
:1009D000482F437021E030E002C0220F331F4A95B8
:1009E000E2F73C68392B86958695837040E2849FB8
:1009F000C0011124822B932B0895811545E594079E
:100A000050F4811524E5920708F446C0982F8827F2
:100A1000846F906A0895811546E5940708F450C0E4
:100A20009C0130569F702115304108F046CF9062EE
:100A30000895805C91090E942F040895853A9105DC
:100A400009F443C0863A910509F042C082E890E477
:100A50000895906508959F70EECF9927906C089542
:100A60009F70906A0895982F8827816F906A0895E3
:100A7000AC014370552721E030E002C0220F331F44
:100A80004A95E2F78695869540E2849FC00111243D
:100A9000822B932B9C680895AC014370552721E06D
:100AA00030E002C0220F331F4A95E2F78695869503
:100AB00040E2849FC0011124822B932B9A680895F1
:100AC000982F882788279F71B2CF81E890E40895F6
:100AD00083E890E4089582EE94E4089589EE94E426
:100AE00008958AEE94E4089585EB94E4089586EBE6
:100AF00094E4089583EB94E4089584EB94E40895DA
:100B000087EB94E408958CEC94E408958DEC94E4E0
:100B1000089583E895E408958AE895E4089582E9C4
:100B200095E4089584E995E4089581E296E40895B2
:100B300083E296E4089584E296E4089585E296E4DB
:100B4000089586E296E4089587E296E408958AE29D
:100B500096E41CCF8238910549F1B0F481339105B8
:100B600009F45CC048F48932910509F452C08A3214
:100B7000910509F458C008958533910509F444C0DE
:100B80008933910599F00895833E910531F138F448
:100B9000803E910591F0823E9105B1F00895863E28
:100BA000910511F1873E910541F1089520910102CF
:100BB0002370C9F080EE90E008952091010220FF9B
:100BC00012C089E390E008952091010222FF0BC03A
:100BD00024FF2EC090E080E008952091010222FDC4
:100BE0002AC024FDF7CF08952091010223FFFBCFF7
:100BF00024FDF0CF87EE90E008952091010223FFBD
:100C0000F0CF86EE90E008952091010225FD16C0F8
:100C100008952091010225FD14C00895209101023C
:100C200026FD12C008952091010226FD10C00895EE
:100C300083EE90E0089582EE90E0089589E290E0DE
:100C4000089585E390E008958AE290E0089581E3B5
:100C500090E0C9CF08950F931F93CF938C01FB01B0
:100C60008281811106C0C1E08C2FCF911F910F911D
:100C70000895C0914101C11125C00531104799F770
:100C80000E942A0681E0809341010E940E149093F5
:100C9000400180933F01109234011092360110926E
:100CA0003501109238011092370110923A011092DA
:100CB000390110923C0110923B0110923E011092BA
:100CC0003D01D2CF80913F01909140010E941A14C2
:100CD000883C910540F680913401E82FF0E0EE0F5A
:100CE000FF1FEB5CFE4F118300838F5F8093340105
:100CF000C0E0BACF0C94B8020C94B902CF93DF9342
:100D000085B7806885BF85B7806885BFA3E1B1E0FE
:100D100047E151E0C1E0D0E08D91E82FE295EF701E
:100D2000F0E061A18F709E0101C0220F8A95EAF761
:100D3000922F9095962391A382A1822B82A34A178A
:100D40005B0751F7A7E1B1E061E070E08D91E82F1A
:100D5000E295EF70F0E041A18F709B0101C0220F7E
:100D60008A95EAF7922F9095942391A382A1822BE2
:100D700082A381E0AC31B80749F710924701109285
:100D800042011092480110924301109249011092C1
:100D9000440110924A011092450110924B011092A9
:100DA0004601DF91CF910C9412044F925F927F9293
:100DB0008F929F92AF92BF92CF92DF92EF92FF926B
:100DC0000F931F93CF93DF9303E111E0512C412C3C
:100DD000EE24E394F12CDD24D394E80189918E0173
:100DE000E82FE295EF70F0E091A18F70A70101C0AC
:100DF000440F8A95EAF7892F842B81A392A1C42EF0
:100E0000C0949C2192A3D0EADA95F1F79701042CC3
:100E100001C0220F0A94EAF7722E322F3095A2E415
:100E2000B1E067E171E0912C8C90EB012991BE015A
:100E3000A22EA2948FE0A822B12CE50188A190E017
:100E40002F7002C0959587952A95E2F780FD5AC0CC
:100E5000872D88298C938C91881611F0992493946E
:100E60001196D1E06C317D07F9F681A18C2181A327
:100E700082A1842B82A3992041F0D0924C010E9440
:100E80000E1490934E0180934D01EFEF4E1A5E0ABF
:100E9000F4E04F16510409F0A0CF80914C01882353
:100EA000F1F080914D0190914E010E941A14069725
:100EB000B0F080914201809347018091430180937B
:100EC00048018091440180934901809145018093BC
:100ED0004A018091460180934B0110924C010E947F
:100EE000140481E0DF91CF911F910F91FF90EF905B
:100EF000DF90CF90BF90AF909F908F907F905F904A
:100F00004F900895832F8821A5CFE82FF0E0E95B6B
:100F1000FE4F80810895089590935401809353016A
:100F20000895E0915301F0915401309721F0019020
:100F3000F081E02D099480E00895E0915301F09153
:100F40005401309721F00280F381E02D0994089537
:100F5000E0915301F0915401309721F00480F58124
:100F6000E02D0994089520915101309152012817E4
:100F7000390771F09093520180935101E091530130
:100F8000F0915401309721F00680F781E02D09940B
:100F9000089520914F01309150012817390771F0C1
:100FA0009093500180934F01E0915301F0915401CF
:100FB000309721F00084F185E02D0994089508957B
:100FC0000C94DF070E9405140E947E060C94CE1438
:100FD000BF92CF92DF92EF92FF920F931F93CF9326
:100FE000DF93CDB7DEB72A970FB6F894DEBF0FBEFA
:100FF000CDBF0E94D50686E5C82E81E0D82E10E030
:1010000000E0B02E802F0E948507E82EF601F190B7
:101010006F01F81609F45AC08091D00181FD0E9439
:101020008B0790E080E0FE242F2D30E0482FB9019F
:10103000082E02C0759567950A94E2F760FF41C0DB
:101040008E83BF8281E090E06C0102C0CC0CDD1C7D
:101050004A95E2F72E2D30E02C213D21232B09F477
:1010600080E088870E940E148160782F9A87898794
:101070004E815F8168858A850E948D08F801EA5A51
:10108000FE4F80818C2580830E9452170E94910719
:1010900090915501891789F10E949107809355011C
:1010A0002A960FB6F894DEBF0FBECDBFDF91CF9169
:1010B0001F910F91FF90EF90DF90CF90BF900C9415
:1010C000180401968430910509F0B0CF0F5F1F4FCF
:1010D0000530110509F095CF8FEF89838A831B8234
:1010E0000E940E148160782F9D838C8349815A81E0
:1010F0006B818D810E948D08C7CF2A960FB6F89418
:10110000DEBF0FBECDBFDF91CF911F910F91FF903A
:10111000EF90DF90CF90BF900895CF93DF93CDB73E
:10112000DEB72B970FB6F894DEBF0FBECDBF4F834F
:10113000588769877A878B871E821D8285E0FE012A
:101140003796DE01119601900D928A95E1F749815B
:101150005A816B817C818D819E812B960FB6F8948C
:10116000DEBF0FBECDBFDF91CF910C940A0F882355
:1011700009F4D8C0823871F40E94910781FDD2C071
:1011800089E30E945D120E94251389E30E949A124E
:101190000C942513833859F40E94910780FDC2C036
:1011A00083E50E945D120E94251383E5EFCF84380A
:1011B00059F40E94910782FDB5C087E40E945D1238
:1011C0000E94251387E4E2CF9CEF980F913A18F420
:1011D0000E945D12DDCF90E2980F983050F4877036
:1011E00091E001C0990F8A95EAF7892F0E94DC12DD
:1011F000CFCF9BE5980F933070F4853A31F0863A63
:1012000039F083E890E00C94B30781E890E0FBCFDD
:1012100082E890E0F8CF98E5980F953108F082C009
:10122000883A09F440C0893A09F440C08A3A09F47E
:1012300040C08B3A09F440C08C3A09F440C08B3B63
:1012400009F440C08C3B09F440C08D3A09F440C019
:10125000803B09F440C08E3A09F440C08F3A09F44B
:1012600040C0813B09F440C0823B09F440C0833B4D
:1012700009F440C0843B09F440C0853B09F440C0F8
:10128000863B09F440C0873B09F440C0883B09F421
:1012900040C0893B09F440C08A3B09F440C090E05B
:1012A00080E00C94C90782EE90E0FBCF89EE90E0DD
:1012B000F8CF8AEE90E0F5CF85EB90E0F2CF86EBA9
:1012C00090E0EFCF83EB90E0ECCF84EB90E0E9CFC0
:1012D00087EB90E0E6CF8CEC90E0E3CF8DEC90E0F4
:1012E000E0CF83E891E0DDCF8AE891E0DACF82E9D0
:1012F00091E0D7CF84E991E0D4CF81E292E0D1CFE1
:1013000083E292E0CECF84E292E0CBCF85E292E01E
:10131000C8CF86E292E0C5CF87E292E0C2CF8AE2F0
:1013200092E0BFCF0895882309F44BC0823871F44E
:101330000E94910781FF45C089E30E945D120E94CF
:10134000251389E30E949A120C942513833859F4CB
:101350000E94910780FF35C083E50E945D120E94C4
:10136000251383E5EFCF843859F40E94910782FF5B
:1013700028C087E40E945D120E94251387E4E2CF13
:101380009CEF980F913AF0F290E2980F983050F459
:10139000877091E001C0990F8A95EAF7892F0E9422
:1013A000E212D2CF9BE5980F933020F490E080E0DA
:1013B0000C94B307885A853120F490E080E00C94B7
:1013C000C9070895882321F00E94DC120C9425138C
:1013D0000895882321F00E94E2120C9425130895A9
:1013E0008F929F92AF92BF92DF92EF92FF920F93F4
:1013F0001F93CF93DF937C01D62FC72FFC0105816C
:1014000002950F70128111110E94FB120E94561258
:10141000D82E882371F0112321F180E28D0F8830BE
:1014200000F182E00E9440120E94561291E0D82EF4
:10143000D926EC2FE295EF70F0E0EF5DF54F0C94BC
:101440002E20330A330A830A830AC50AE10A600A96
:10145000600AEC0A600A840B840BF70B600A600ACE
:10146000000CD12CE6CF0C2F0F70C07F11F002952D
:10147000007F1123A9F0002359F080E28D0F8830FE
:1014800010F0D11109C0802F0E94DC120E94251398
:101490008D2F0E94B70814C0802F0E94ED12F6CF46
:1014A0008D2F0E949309002359F080E28D0F883020
:1014B00010F0D11124C0802F0E94E2120E94251347
:1014C000DD2009F4A4C10E94331280FDA0C1F70100
:1014D00012820E942D120E94A910C7010E94130CB3
:1014E0000E942D12DF91CF911F910F91FF90EF90ED
:1014F000DF90BF90AF909F908F900C94CA10802F78
:101500000E94F312DBCFFC2FFF70BF2EC07FC032D2
:1015100019F0B29480EFB822DD2369F0D13029F1BF
:10152000112369F1002359F0F701858180FFB0CFC5
:101530008F70858304C0112361F0011104C08B2DCD
:101540000E94E209BDCF8B2D0130D1F70E940F130D
:10155000B7CF011106C00E9412138B2D0E94E9091A
:10156000AFCF013009F4ACCFF6CF112321F0063014
:1015700008F0A6CFE4CF053008F0A2CFEECF0023CD
:1015800061F38D2F0E9493099BCF8C2F86958695B2
:10159000837069F0813009F093CF8D2F9C2F937069
:1015A000111102C090E080E00E94C90789CF8D2F01
:1015B0009C2F9370111102C090E080E00E94B3074D
:1015C0007FCF8D2F112329F00E945B160E944717B1
:1015D00077CF0E94C316FACF8C2F837009F047C0D3
:1015E00011116ECF2D2F229526952770220F220FD5
:1015F0006D2F6F70862E912CB12CA12C022E04C061
:10160000880C991CAA1CBB1C0A94D2F760E070E0FD
:10161000CB01D4FF0FC06FE070E080E090E004C029
:10162000660F771F881F991F2A95D2F760957095CE
:1016300080959095C695C695C370C23051F080F4E0
:10164000682979298A299B29C13071F00E9452109A
:1016500037CF682979298A299B290E946E1030CFBB
:101660000E945210C501B4010E94361029CF869500
:10167000112311F08C2F8170882309F421CF2D2F95
:10168000229526952770220F220F6D2F6F70862EC0
:10169000912CB12CA12C022E04C0880C991CAA1CE0
:1016A000BB1C0A94D2F760E070E0CB01D4FF0FC0FE
:1016B0006FE070E080E090E004C0660F771F881F45
:1016C000991F2A95D2F76095709580959095C6954B
:1016D000C695C370C23051F080F4682979298A29EF
:1016E0009B29C13071F00E942C11EACE682979291A
:1016F0008A299B290E944811E3CE0E942C11C50122
:10170000B4010E941011DCCEE0E2ED0FE53108F0EB
:1017100062C0F0E0E257F44F0C942E20A30BA30B11
:10172000A30BA30BA30BA30BA30BA30BA30BA30B49
:10173000A30BA30BA30BA30BA30BA30BB00BBE0B11
:10174000C50BCC0BD60BDF708C2F8F71112321F0C2
:101750000E94A9108D2FF4CE0E94CA108D2FFECEAC
:10176000112341F0053008F0ABCE8C2F8F710E9411
:10177000EF10A6CE063008F0A3CEF7CF8C2F8F71D6
:10178000112339F00E94A9109BCE8C2F8F71112349
:10179000C9F30E94CA1094CE112329F08C2F8F71A7
:1017A0000E9494108DCE0E948A108ACE112349F097
:1017B000CF718C2F0E94A91063E08C2F0E943712EA
:1017C0007FCE81E00E944012023008F479CE82E0A0
:1017D0000E94401275CE112329F0011159CE8C2F91
:1017E0008F71D0CF0111CDCE8C2F8F71D2CF4C2FD6
:1017F0004F706D2FC7010E94B5020E94B30F60CEDB
:101800004C2F4F706D2FC7010E941A0459CEDF91E3
:10181000CF911F910F91FF90EF90DF90BF90AF900D
:101820009F908F9008950F931F93CF93DF93EC01B8
:10183000988189812B813C81232B39F08F3F19F4CA
:1018400081E09F3F19F080E001C081E080FD17C07A
:10185000CE010E94D402882391F0688179818A8127
:101860000E9409128C010E9464110E942B10B80181
:10187000CE01DF91CF911F910F910C94F009DF9170
:10188000CF911F910F9108950E94FB120E940C139B
:101890000E94CE120E9425130E94F4170E9447173F
:1018A00090E080E00E94B30790E080E00C94C907CC
:1018B0000E94EA120C94440C0E94FF11E92FE29559
:1018C000EF70E250EE30E0F4F0E0E759F34F0C94A3
:1018D0002E20770C770C800C800C820C800C800CF6
:1018E000800C770C770C870C800C800C870C803F69
:1018F00019F020F4803E20F481E00895843FE1F364
:1019000080E00895803EC0F3813FD1F7F5CF93FB8F
:10191000882780F90895CF93DF9300D000D01F92DD
:10192000CDB7DEB70F900F900F900F900F90DF9113
:10193000CF910895CF93DF9300D000D000D0CDB7E2
:10194000DEB726960FB6F894DEBF0FBECDBFDF918F
:10195000CF9108951F93CF93DF93C0915C0116E060
:1019600080915D018C1304C0DF91CF911F91089588
:10197000D0E01C9FF0011D9FF00D1124E25AFE4F94
:101980004081518162817381848195810E949A0C8A
:101990002196C770E5CF40918E0150918F016091E3
:1019A00090017091910180919201909193010C941A
:1019B0009A0C1F93CF93DF9380919301807FD1F492
:1019C000809190018823B1F080915C01D0915D01FC
:1019D000B0918E01C0918F0140919101509192017F
:1019E000A1E0BF3F09F0A0E0BA016095709516E054
:1019F000D81304C0DF91CF911F91089521E04115C4
:101A0000510521F02A2FCF3F09F020E090E020FD82
:101A100038C0189FF001199FF00D1124E25AFE4FB3
:101A200021812C132EC020812B132BC02281211148
:101A300028C0238134812417350700F1241B350B7E
:101A4000283C3105F0F4209193012F702061209300
:101A5000930126E0289FF001299FF00D1124ED59F4
:101A6000FE4F80818F70806180838EE891E00E94BC
:101A7000130CDF91CF911F910C94AA0C260F371FE6
:101A8000DFCF01968770B4CFAF92BF92CF92DF9233
:101A9000EF92FF920F931F93CF93DF93CDB7DEB7F3
:101AA00061970FB6F894DEBF0FBECDBF8C0185E005
:101AB000F801DE011D9601900D928A95E1F7D8019B
:101AC0004C9111965C9111971296EC9030918E0189
:101AD00060918F01809191019091920121E0009796
:101AE00031F06F3F19F421E03F3F09F020E0B22FC1
:101AF000B170BB2E20FD80C1F801C380D480A090BE
:101B00009001AA2009F427C1C816D906D0F1D60140
:101B1000A81BB90BCD01FF24F394883C910508F074
:101B2000F12C80919301982F907FFF2009F4CAC077
:101B3000911187C0FE2C651329C0341327C0E11012
:101B400025C08F708061809393010E94CB0C8EE83A
:101B500091E00E94130C80919301F80185838F2DF1
:101B600061960FB6F894DEBF0FBECDBFDF91CF9167
:101B70001F910F91FF90EF90DF90CF90BF90AF90AB
:101B80000895809590958C0D9D1DC5CF81E0CD2841
:101B900031F05F3F19F481E04F3F09F080E080FDB4
:101BA00024C081E08E25F82FF170DF2E80FF3FC02A
:101BB00080915C0120915D0136E0821318C04D8751
:101BC0005E878D859E850E94FF11292F22952F709B
:101BD000223008F1243030F59F7009F1D8011596B4
:101BE0009C91907FE1F4FB2CBACF80E0DCCF90E0B9
:101BF000389FF001399FF00D1124E25AFE4F6181A8
:101C0000561306C06081461303C062816E110FC077
:101C100001968770D2CF9F7011F0882321F3805EE8
:101C2000883008F3C8010E94130CBD2CDCCFEE20D5
:101C300009F495CF80919301816080939301F12CF9
:101C40008ECF651312C0341310C0E1100EC0F8011E
:101C50008583C8010E94130C86E0F801AEE8B1E06C
:101C600001900D928A95E1F741C04D875E878D8581
:101C70009E850E945C0C882309F4C8C0EE2009F4FC
:101C8000C5C080919301803270F020918E01309117
:101C90008F0138872F831986DB86CA868C87CE0111
:101CA00007960E94130C86E0F801AEE8B1E00190BF
:101CB0000D928A95E1F70E94D90C0E94CB0CFF246B
:101CC000F3944DCF911115C07C2DD98AC88A6E2D01
:101CD00089890E948B0C8EE891E00E94130C86E0AB
:101CE000EEE8F1E0DF011D928A95E9F70E94CB0C46
:101CF00036CF651312C0341310C0E1100EC0F801C6
:101D00008583C8010E94130CEEE8F1E086E0DF0154
:101D10001D928A95E9F7FA2C22CF4D875E878D8533
:101D20009E850E945C0C882309F470C0EE2009F4A3
:101D30006DC080919301803208F4B5CF20918E015F
:101D400030918F013A8329831B82DD82CC828E837E
:101D5000CE010196A6CFC816D90638F1F601E81BC8
:101D6000F90BCF01F12C883C910508F03DC0FE2C09
:101D7000EE2009F44BC0651326C0341324C08091B3
:101D8000930180FD17C0982F907FA1F0D801159680
:101D90008C931597903F09F45CCF982F907F905FBC
:101DA0008F70892B15968C9354CF809590958C0DC0
:101DB0009D1DD8CF86E0F801AEE8B1E001900D920C
:101DC0008A95E1F7CCCE4D875E878D859E850E94F2
:101DD0005C0C811168CF80919301816080939301A5
:101DE000C8010E94130CBBCE7C2DD98AC88A6E2DE7
:101DF00089890E948B0C73CFEE2041F04D875E875E
:101E00008D859E850E945C0C81114DCFC8010E947A
:101E1000130C55CF1F93CF93DF93CDB7DEB72C971D
:101E20000FB6F894DEBF0FBECDBF4F8358876987CA
:101E30007A878B879C87CE0107960E94440D882362
:101E400009F442C09F8188852A853B85232B39F080
:101E50008F3F19F481E09F3F19F080E001C081E0DD
:101E600080FD08C04F81588569857A858B859C8562
:101E70000E949A0C16E080915C0190915D01891797
:101E800009F467C0819FC0011124825A9E4F0E94AD
:101E9000440D882309F45DC0E0915C011E9FF001B0
:101EA0001124E25AFE4F4081518162817381848105
:101EB00095810E949A0C80915C0190E00196877058
:101EC000992780935C01D7CF86E0FE013796DE012B
:101ED000119601900D928A95E1F79F8188852A8558
:101EE0003B85232B39F08F3F19F481E09F3F19F098
:101EF00080E001C081E080FDBDCF20915D0130E038
:101F0000C90101968770992740915C01481719060D
:101F100099F096E0929FD001939FB00D1124A25AA0
:101F2000BE4FFE01319601900D929A95E1F7809394
:101F30005D010E94AA0C9ECF0E94580C10925D0178
:101F400010925C0186E0EEE8F1E0DF011D928A95D7
:101F5000E9F72C960FB6F894DEBF0FBECDBFDF9128
:101F6000CF911F910895EF92FF920F931F93CF93FC
:101F7000DF938C01892B81F0F12CEE24E394E801AE
:101F80002196F8018491843770F4843008F05FC0A2
:101F90008130B1F08230A1F1DF91CF911F910F918B
:101FA000FF90EF900895853709F44CC008F43DC0C8
:101FB0009CE7980F903780F78F770E94930949C06C
:101FC0000E5F1F4FFE01849190E2980F983060F4ED
:101FD0008770FE2D01C0FF0F8A95EAF78F2F0E94B0
:101FE000FE120E94251302C00E94B7088F2D815057
:101FF00030F2EFE9FFE03197F1F700C00000F7CFD2
:102000000E5F1F4FFE01849190E2980F983050F4BC
:102010008770FE2D01C0FF0F8A95EAF78F2F0E946F
:102020000413DFCF0E949309E1CF0E5F1F4FFE0123
:10203000C491C150D8F28FE99FE00197F1F700C039
:102040000000F7CF0E5F1F4FFE01F490CFCF0E942C
:10205000B7088E01CBCF08956093A7017093A801B4
:102060008093A9019093AA010C94440C0F931F93A1
:102070000091A7011091A8012091A9013091AA0116
:10208000DC01CB01802B912BA22BB32B8093A701DA
:102090009093A801A093A901B093AA011F910F9159
:1020A0000C94440C0F931F930091A7011091A80169
:1020B0002091A9013091AA01DC01CB018023912359
:1020C000A223B3238093A7019093A801A093A90111
:1020D000B093AA011F910F910C94440C0F931F937E
:1020E0000091A7011091A8012091A9013091AA01A6
:1020F000DC01CB0180279127A227B3278093A7017A
:102100009093A801A093A901B093AA011F910F91E8
:102110000C94440C1092A3011092A4011092A501FA
:102120001092A6010C94440C41E050E060E070E095
:1021300004C0440F551F661F771F8A95D2F740933E
:10214000A3015093A4016093A5017093A6010C9480
:10215000440C41E050E060E070E004C0440F551FC3
:10216000661F771F8A95D2F78091A3019091A401F1
:10217000A091A501B091A601842B952BA62BB72B7E
:102180008093A3019093A401A093A501B093A6010D
:102190000C94440C41E050E060E070E004C0440F57
:1021A000551F661F771F8A95D2F740955095609509
:1021B00070958091A3019091A401A091A501B09187
:1021C000A60184239523A623B7238093A30190938C
:1021D000A401A093A501B093A6010C94440C41E086
:1021E00050E060E070E004C0440F551F661F771F89
:1021F0008A95D2F78091A3019091A401A091A501A5
:10220000B091A60184279527A627B7278093A3011D
:102210009093A401A093A501B093A6010C94440C43
:102220000F931F930091A3011091A4012091A50188
:102230003091A601DC01CB01802B912BA22BB32B7B
:102240008093A3019093A401A093A501B093A6014C
:102250001F910F910C94440C0F931F930091A301B5
:102260001091A4012091A5013091A601DC01CB01C0
:1022700080239123A223B3238093A3019093A401ED
:10228000A093A501B093A6011F910F910C94440C4B
:102290000F931F930091A3011091A4012091A50118
:1022A0003091A601DC01CB0180279127A227B3271B
:1022B0008093A3019093A401A093A501B093A601DC
:1022C0001F910F910C94440C0895990F990F890F49
:1022D000982F977071E001C0770F9A95EAF786956D
:1022E0008695869525E0829FC001112450E040E04C
:1022F000A62FB0E0FC01E40FF51FEC56FE4F608105
:102300009D01042E02C0369527950A94E2F72170AC
:10231000219526272723262720834F5F5F4F4530AF
:10232000510541F70895990F990F890F982F9770CC
:1023300086958695869525E0829FA001112470E000
:1023400060E080E0FA01E60FF71FEC56FE4F2081B7
:1023500030E0092E02C0369527950A94E2F72170E5
:102360003327062E01C0220F0A94EAF7822B6F5FF3
:102370007F4F6530710531F70895BF92CF92DF929C
:10238000EF92FF920F931F93CF93DF938C01C09036
:10239000A301D090A401E090A501F090A601809146
:1023A000A7019091A801A091A901B091AA01C82A02
:1023B000D92AEA2AFB2ACFE1D0E0BC2ED701C601F8
:1023C0000C2E04C0B695A795979587950A94D2F7D9
:1023D00080FD0EC0219788F7B12C8B2DDF91CF9116
:1023E0001F910F91FF90EF90DF90CF90BF900895D5
:1023F000B8018C2F0E943704019761F3EECFCF9381
:10240000DF93EC010E94BD11BE01DF91CF910C94CE
:1024100037041F93CF93DF93EB0190915B019923D6
:1024200031F0CB01DF91CF911F910C94FF118823E4
:1024300079F0CB010E94BD11182F682FCE010E94A8
:102440006511BE01812FDF91CF911F910C9437044C
:10245000CB010E949311182FF4CF8091AB01859589
:102460008595859508958091AB018770089598E0D2
:10247000899F90011124622B6093AB010C94A910E9
:102480009091AB01809589238093AB01282F277011
:1024900061F4282F082E000C330B9217130629F035
:1024A0008595859585950C94CA1008959091AB01FA
:1024B000977081E009F480E00895909112019923CA
:1024C000E1F09091010297FF18C0E82FE695E6959C
:1024D000E695EF3139F12091000130910101E20FD1
:1024E000F32FF11D877021E030E001C0220F8A95A3
:1024F000EAF78181822B8183089520910001309138
:102500000101F90132969FEF40E05191851751F09A
:102510009F3F19F4511101C0942F4F5F4E31A9F71D
:102520009F3F09F40895290F311D97FD3A95F90150
:1025300082830895909112019923F1F09091010204
:1025400097FF1AC0E82FE695E695E695EF3129F159
:102550002091000130910101E20FF32FF11D282F8E
:10256000277081E090E001C0880F2A95EAF78095F6
:102570009181892381830895209100013091010187
:10258000F9013296205E3F4F9191891303C0DF011C
:1025900011971C92E217F307B9F7089581E090E0D4
:1025A000E0910001F0910101E80FF91F10820196FE
:1025B00080329105A9F708959091CF01892B8093DE
:1025C000CF010895982F90958091CF018923809312
:1025D000CF0108951092CF0108959091CE01892BDB
:1025E0008093CE010895982F90958091CE018923F4
:1025F0008093CE0108951092CE0108959091CD015F
:10260000892B8093CD010895982F90958091CD01CD
:1026100089238093CD0108951092CD010895809370
:10262000AC0108951092AC01089520910001309101
:102630000101F9013196205E3F4F80E091919111A7
:102640008F5FE217F307D1F70895E0910001F09151
:1026500001018091CF018083E0910001F09101019F
:1026600080819091CE01892B8083E0910001F091CF
:10267000010180819091CD01892B80839091AC01E3
:10268000992361F0E0910001F09101018081892B93
:1026900080830E94151381111092AC01809100017A
:1026A000909101010C949D076DEE7EEF90E080E02B
:1026B0000E94682060E082E090E00E94562060E086
:1026C00083E090E00E94562060E084E090E00E9469
:1026D000562060E085E090E00C94562090E080E089
:1026E0000E94502021E08D3E9E4F09F020E0822F75
:1026F000089582E090E00C944820682F82E090E0FA
:102700000C94562083E090E00C944820682F83E0DE
:1027100090E00C94562084E090E00C944820682FC0
:1027200084E090E00C94562080910702843039F1C7
:102730001092D10188E190E020E40FB6F894A895BA
:10274000809360000FBE2093600080E00E94180418
:1027500083B7817F846083BF83B7816083BF7894B0
:10276000889583B78E7F83BF0FB6F894A895809124
:102770006000886180936000109260000FBE089531
:1027800008950895CF930E94C0130E94D5060E9419
:10279000C113C0E08C2F0E948507811105C0CF5F57
:1027A000C530C1F7CF91089581E0FCCF0E94580C4D
:1027B0000E9491070C9418041F920F920FB60F926B
:1027C00011248F939F93AF93BF938091D101811177
:1027D00013C08091FD019091FE01A091FF01B09185
:1027E00000024196A11DB11D8093FD019093FE0151
:1027F000A093FF01B0930002BF91AF919F918F9181
:102800000F900FBE0F901F90189582E084BD93E04B
:1028100095BD9AEF97BD80936E0008952FB7F894F9
:102820008091FD019091FE01A091FF01B091000205
:102830002FBF0895CF92DF92EF92FF920F931F93D5
:102840002FB7F8944091FD015091FE016091FF0176
:10285000709100022FBF6A017B01EE24FF248C01DE
:1028600030E020E0C016D106E206F30650F0481B27
:10287000590BCA011F910F91FF90EF90DF90CF90FD
:10288000089541505109F3CF1F920F920FB60F9246
:1028900011248F939F93AF93BF938091FD019091EB
:1028A000FE01A091FF01B09100020196A11DB11D92
:1028B0008093FD019093FE01A093FF01B09300026D
:1028C000BF91AF919F918F910F900FBE0F901F906E
:1028D00018950E94EE1BF8942FEF87EA91E621509D
:1028E00080409040E1F700C0000087E090EBDC0101
:1028F0008093100290931102A0931202B0931302DE
:1029000088E19CE00FB6F894A895809360000FBE14
:1029100090936000FFCFCF92DF92EF92FF920F93E0
:102920001F93CF93C0E0E82EF12C8C2F0E948507D7
:1029300010E000E0C82ED12CC601002E02C09595F3
:1029400087950A94E2F780FD11C00F5F1F4F043096
:10295000110591F7CF5FC53041F780E0CF911F910E
:102960000F91FF90EF90DF90CF900895602F7C2F14
:1029700080E00E941B04E816F90639F781E0EECFEB
:10298000CF93C82F8CE20E948B14882321F08C2FC8
:10299000CF910C948B1480E0CF910895CF930E9437
:1029A0006E13811102C00E945413C5E6C15009F094
:1029B000D1C089E20E94C0148111F8C08AE20E944D
:1029C000C01481110E94541385E00E94C01481112B
:1029D0000E9469140E9479138093D00187E00E94BD
:1029E000C014882371F08BE10E94C014882309F47D
:1029F000BAC09091D001892F8D7F91FF8260809322
:102A0000D0018091D0010E947D130E948B1390E031
:102A1000909302028093010280EE0E94C0148823EA
:102A200041F090910102892F8E7F90FF8160809309
:102A3000010289E30E94C014882341F090910102B1
:102A4000892F8D7F91FF82608093010282EE0E9428
:102A5000C014882341F090910102892F8B7F92FF4F
:102A600084608093010286EE0E94C014882341F0A6
:102A700090910102892F877F93FF886080930102E4
:102A800083EE0E94C014882341F090910102892FA7
:102A90008F7E94FF80618093010285E30E94C014C1
:102AA000882341F090910102892F8F7D95FF8062EC
:102AB0008093010281E30E94C014882341F0909129
:102AC0000102892F8F7B96FF80648093010281E150
:102AD0000E94C014882341F090910102892F97FB36
:102AE00087F9805880930102809101020E948F1320
:102AF00087E20E94C014C82F8EE10E94C014811189
:102B0000C2608FE10E94C0148111C46080E20E9403
:102B1000C0148111C86081E20E94C0148111C0619B
:102B200082E20E94C0148111C06283E20E94C0143C
:102B30008111C06484E20E94C014882389F1C068B6
:102B40008C2F0E9486136C2F70E090E080E0CF9174
:102B50000C942C100E94D5068FE39CE90197F1F7A5
:102B600000C0000023CF8EE00E94C014882339F0FB
:102B70009091D001892F8B7F92FF846040CF80E1BC
:102B80000E94C0149091D001882329F0892F877F5B
:102B900093FF886034CF892F8E7F90FF81602FCF85
:102BA000C111CECF0E948213682FCECFCF9108954E
:102BB0008091D40180FF12C06091050185E0689F7B
:102BC000B001112475956795759567956038710505
:102BD000A8F561157105A1F1862F089581FF09C03F
:102BE0006091050185E0689FB00111247595679596
:102BF000EDCF82FF07C06091050185E0689FB001BD
:102C00001124E4CF2091D5012223A9F09091040151
:102C10006091050185E0689FB00111242917B0F685
:102C2000269FA001279F500D1124692F70E0CA0133
:102C30000E941A20CBCF65E070E0CECF8FE70895D9
:102C400081E008958091D40180FF0CC06091030160
:102C500070E075956795759567956115710549F1F2
:102C6000862F089581FF06C06091030170E075957D
:102C70006795F3CF6091030182FD0BC09091D50160
:102C80009923A1F06091020180910301961738F019
:102C9000682F70E06038710500F38FE70895899F11
:102CA000C001112470E00E941A20F4CF61E070E0AE
:102CB000D7CF81E00895803F31F40E94D8158195E7
:102CC0008093D8010895813F19F40E94D815F8CF58
:102CD000823F31F40E94D81581958093D7010895E1
:102CE000833F19F40E94D815F8CF893F29F40E9438
:102CF00022168093D90108958A3F21F40E9422165A
:102D00008195F7CF8B3F31F40E94221681958093F5
:102D1000DA0108958C3F19F40E942216F8CF843FFF
:102D200031F48091D60181608093D6010895853F6A
:102D300021F48091D6018260F7CF863F21F4809103
:102D4000D6018460F1CF873F21F48091D60188605D
:102D5000EBCF883F21F48091D6018061E5CF8D3F94
:102D600031F48091D40181608093D40108958E3F25
:102D700021F48091D4018260F7CF8F3FB9F7809121
:102D8000D4018460F1CF803FC1F48091D80187FDE8
:102D90001092D8018091D70181110EC08091D80185
:102DA00081110AC08091D901811106C08091DA0198
:102DB000811102C01092D5010895813F29F48091BC
:102DC000D80118162CF3E6CF9091D701823F29F451
:102DD00097FFE0CF1092D701DDCF833F19F419168A
:102DE000CCF3D8CF893F39F48091D901181694F6E5
:102DF0001092D901CFCF8A3F29F48091D90187FF62
:102E0000C9CFF6CF8B3F39F48091DA0187FFC2CF6B
:102E10001092DA01BFCF8C3F29F48091DA011816A5
:102E2000BCF3B8CF843F31F48091D6018E7F80937C
:102E3000D601B0CF853F21F48091D6018D7FF7CFA9
:102E4000863F21F48091D6018B7FF1CF873F21F41B
:102E50008091D601877FEBCF883F21F48091D60106
:102E60008F7EE5CF8D3F31F48091D4018E7F8093AA
:102E7000D40190CF8E3F21F48091D4018D7FF7CF84
:102E80008F3F09F087CF8091D4018B7FF0CF86ED03
:102E900091E00E94A8070E940E149093D3018093A2
:102EA000D20108951F93CF93DF938091D201909127
:102EB000D3010E941A14AC019091D5012091060112
:102EC00030E0911106C0209107018AE0289F90010F
:102ED00011244217530780F08091D701C091D80187
:102EE0001091D901D091DA0181110AC0C11178C0C5
:102EF000111176C0D11174C0DF91CF911F91089547
:102F00009F3F19F09F5F9093D501181624F40E94FB
:102F1000D8158093D7018091D70187FF05C00E9403
:102F2000D81581958093D7011C1624F40E94D815DA
:102F30008093D8018091D80187FF05C00E94D815E1
:102F400081958093D8016091D701662331F1C091BA
:102F5000D801CC2311F1062E000C770B880B990BAE
:102F60000E94211F23E333E343E35FE30E94851FB5
:102F70000E94E91E6093D7016C2FCC0F770B880B52
:102F8000990B0E94211F23E333E343E35FE30E9495
:102F9000851F0E94E91E6093D801111624F40E9437
:102FA00022168093D9018091D90187FF05C00E9424
:102FB000221681958093D9011D1624F40E942216B1
:102FC0008093DA018091DA0187FF05C00E94221602
:102FD00081958093DA01DF91CF911F910C9447176F
:102FE0009F3F09F08FCFA0CF85E0E6EDF1E0DF0154
:102FF0001D928A95E9F71092D5011092D401089597
:103000008091FB010895CF93DF9300D01F92CDB73D
:10301000DEB79C0180910702843019F593E0998313
:103020003B832A839093E9008FEF9091E8008150D1
:1030300095FD06C095ED9A95F1F700008111F5CF49
:103040008091E80085FF0DC050E040E063E070E053
:10305000CE0101960E945E1A8091E8008E778093DF
:10306000E8000F900F900F90DF91CF910895CF93CC
:10307000DF9300D01F92CDB7DEB720910702243036
:1030800031F522E02983805891099B838A8383E06C
:103090008093E9008FEF9091E800815095FD06C084
:1030A00095ED9A95F1F700008111F5CF8091E80038
:1030B00085FF0DC050E040E063E070E0CE01019676
:1030C0000E945E1A8091E8008E778093E8000F904E
:1030D0000F900F90DF91CF9108959C01809107028E
:1030E0008430F9F482E08093E9009FEF8091E8005A
:1030F000915085FD06C085ED8A95F1F7000091118C
:10310000F5CF8091E80085FF0CC050E040E065E01D
:1031100070E0C9010E945E1A8091E8008E7780936A
:10312000E8000895CF93DF93EC018091070284308B
:10313000F1F4909112019923E9F09091010297FF27
:1031400019C08093E9008FEF9091E800815095FDC0
:1031500006C095E19A95F1F700008111F5CF8091B5
:10316000E80050E040E060E270E085FD1AC0DF91C9
:10317000CF91089581E08093E9008FEF9091E8006E
:10318000815095FD06C095ED9A95F1F700008111EB
:10319000F5CF8091E80085FFEACF50E040E068E09D
:1031A00070E0CE010E945E1A8091E8008E778093D5
:1031B000E80080E2FE01ABEDB1E001900D928A954E
:1031C000E1F7D5CF80910602811109C00E94EE1B64
:1031D0000E944B1C8091E20084608093E20008957D
:1031E000109206020895089508950C94D61342E0B3
:1031F00061EC81E00E946C1B42E061EC82E00E9485
:103200006C1B42E061EC83E00E946C1B42E261ECCB
:1032100084E00C946C1B80910902833009F455C042
:1032200030F4813071F1823009F491C008958A3010
:1032300009F47DC08B3009F463C0893009F044C0C3
:1032400080910802813209F03FC080910C02909178
:103250000D02009711F00397B9F58091E800877F80
:103260008093E8008091E80082FF2AC08091F100FD
:103270008093FB018091E8008B778093E8000C94A9
:10328000A01B80910802813AF9F48091E800877FC1
:103290008093E80080910C0290910D02892B61F4DB
:1032A00060E28BED91E070E00E94AD1A8091E80041
:1032B0008B778093E800089560E090E080E0F3CFA2
:1032C000809107028111CECF089580910802813A42
:1032D000D9F780910C0290910D02892BA9F780916A
:1032E000E800877F8093E8008091E80080FFFCCFB2
:1032F000809112018093F1008091E8008E77BDCF1C
:1033000080910802813201F780910C0290910D02A8
:10331000892BD1F68091E800877F8093E8000E9496
:10332000A01B80910A02809312010C94580C80918A
:103330000802813249F68091E800877F8093E80097
:103340000E94A01B80910B028093FC010895809144
:103350000802813A09F0B8CF8091E800877F809316
:10336000E8008091E80080FFFCCF8091FC01C2CF93
:1033700084B7877F84BF0FB6F894A89580916000CA
:10338000886180936000109260000FBE80E8809397
:103390006100109261000E94E0070E94EE1B0E94F3
:1033A0004B1C8091E20084608093E20078940E943C
:1033B000CD1E0E94E20788E091E00E948C07809178
:1033C0000702853019F00E94E807F9CF0E94941394
:1033D00080910502882399F30E94C213882379F310
:1033E0000E94481AECCF292F33272330310579F179
:1033F00058F421303105F1F02230310519F190E017
:1034000080E030E020E01AC02132310599F122320B
:103410003105A9F7643098F770E0FB01EE0FFF1F4C
:10342000E05EFE4F20813181645E7E4FFB01808132
:1034300090E004C082E190E029EC33E0FA013183AE
:10344000208308958DE690E02CE533E0F7CF9927AF
:103450008130910561F028F0029789F6ECE2F3E003
:1034600002C0E8E5F3E0849190E09F01E7CFE0E45B
:10347000F3E0F9CF643008F0C2CFE62FF0E0EE0FB2
:10348000FF1FE85DFE4F2081318189E090E0D6CFBB
:1034900080E189BD82E189BD09B400FEFDCF809144
:1034A000D8008F7D8093D8008091E0008260809367
:1034B000E0008091E00081FDFCCF0895AF92BF92C3
:1034C000CF92DF92FF920F931F93CF93DF936C0104
:1034D000EB018A010E94BF1BF82E811123C0011548
:1034E000110539F0F80180819181C81BD90BC80EF4
:1034F000D91EB12CA12C2097A9F08091E80085FD60
:1035000022C08091E8008E778093E80001151105B4
:10351000A1F0F80180819181A80EB91EB182A0822C
:1035200085E0F82E8F2DDF91CF911F910F91FF90A5
:10353000DF90CF90BF90AF9008950E94BF1B88236B
:10354000D1F2F82EEFCFF60181916F018093F10057
:103550002197FFEFAF1ABF0ACECFFC0180910E0278
:1035600090910F0286179707A0F06115710529F455
:103570009091E8009E779093E80090E061157105C6
:1035800051F4911108C08091E80082FF35C080E0BD
:103590000895BC01F2CF809107028823C9F18530DC
:1035A000C9F18091E80083FD31C08091E80082FD7F
:1035B000EACF8091E80080FFE1CF2091F300809175
:1035C000F200322F282F6115710519F028303105CE
:1035D00058F091E02830310509F090E02091E800A2
:1035E0002E772093E800CACF81918093F10061503B
:1035F00071092F5F3F4FE7CF80910702882341F089
:10360000853041F08091E80083FFBDCF81E00895CF
:1036100082E0089583E00895FC0180910E0290916C
:103620000F0286179707A0F06115710529F48091A4
:10363000E8008E778093E80090E06115710551F401
:10364000911108C08091E80082FF36C080E00895A3
:10365000BC01F2CF809107028823D1F18530D1F1EE
:103660008091E80083FD32C08091E80082FDEACFBE
:103670008091E80080FFE1CF2091F3008091F2007B
:10368000322F282F6115710519F02830310558F0B7
:1036900091E02830310509F090E08091E8008E77C4
:1036A0008093E800CACF84918093F10031966150F5
:1036B00071092F5F3F4FE6CF80910702882341F0C9
:1036C000853041F08091E80083FFBCCF81E0089510
:1036D00082E0089583E00895982F973028F08F7046
:1036E0008093E90081E008959093E900242F762FDC
:1036F00050E0981731F07091EC002091ED0050915E
:10370000F00021FD02C09F5FE8CF3091EB003E7FCB
:103710003093EB003091ED003D7F3093ED00309120
:10372000EB0031603093EB007093EC002093ED00E0
:103730005093F0002091EE0027FDE5CF80E0089542
:103740008091080287FF13C08091E80082FF06C0C5
:103750008091E8008B778093E80004C08091070295
:103760008111F2CF0895809107028823D9F38091C7
:10377000E80080FFF8CF8091E8008E77ECCF2091B1
:10378000E4003091E50085E69091EC0090FF06C0E2
:103790009091E80090FF06C080E008959091E800C5
:1037A00092FDFACF90910702992391F0953091F014
:1037B0009091EB0095FD10C04091E4005091E50020
:1037C0002417350709F381509A01F1F684E0089532
:1037D00082E0089583E0089581E008950E945C1CD2
:1037E0000E94641CE0EEF0E0808181608083E8ED5F
:1037F000F0E080818F77808319BCA7EDB0E08C91D9
:103800008E7F8C9380818F7E808310920602089534
:103810000F931F93CF93DF930E945C1C0E94641C44
:10382000C8EDD0E088818F7788838881806888831D
:1038300088818F7D888319BC109207021092030241
:10384000109205021092040200EE10E0F80180814F
:103850008B7F808388818160888342E060E080E0A4
:103860000E946C1BE1EEF0E080818E7F8083E2EEAF
:10387000F0E0808181608083808188608083F801AE
:1038800080818E7F8083888180618883DF91CF9162
:103890001F910F910895E8EDF0E080818F7E808385
:1038A000E7EDF0E080818160808384E082BF81E089
:1038B000809306020C94081CE8EDF0E080818E7F76
:1038C00080831092E20008951092DA001092E100D5
:1038D00008951F920F920FB60F9211242F933F93CA
:1038E0004F935F936F937F938F939F93AF93BF9308
:1038F000EF93FF938091E10082FF0BC08091E20083
:1039000082FF07C08091E1008B7F8093E1000E94DD
:10391000CC1E8091DA0080FF19C08091D80080FF12
:1039200015C08091DA008E7F8093DA008091D900F3
:1039300080FF94C080E189BD82E189BD09B400FEA9
:10394000FDCF81E0809307020E94E2188091E100A0
:1039500080FF19C08091E20080FF15C08091E200D5
:103960008E7F8093E2008091E20080618093E2008C
:103970008091D80080628093D80019BC85E0809344
:1039800007020E94F4188091E10084FF29C0809111
:10399000E20084FF25C080E189BD82E189BD09B4D0
:1039A00000FEFDCF8091D8008F7D8093D80080915C
:1039B000E1008F7E8093E1008091E2008F7E809312
:1039C000E2008091E20081608093E2008091030236
:1039D000882309F449C084E0809307020E94F51807
:1039E0008091E10083FF29C08091E20083FF25C020
:1039F0008091E100877F8093E10082E0809307025D
:103A0000109203028091E1008E7F8093E10080910B
:103A1000E2008E7F8093E2008091E20080618093DB
:103A2000E20042E060E080E00E946C1B8091F000C8
:103A300088608093F0000E94F318FF91EF91BF918E
:103A4000AF919F918F917F916F915F914F913F9136
:103A50002F910F900FBE0F901F90189519BC1092C8
:103A600007020E94F01872CF8091E30087FD02C028
:103A700081E0B2CF83E0B0CF1F920F920FB60F92CA
:103A800011242F933F934F935F936F937F938F9363
:103A90009F93AF93BF93CF93EF93FF93C091E900B0
:103AA000CF708091EC001092E9008091F000877F48
:103AB0008093F00078940E94781D1092E900809124
:103AC000F00088608093F000C093E900FF91EF91CF
:103AD000CF91BF91AF919F918F917F916F915F91A6
:103AE0004F913F912F910F900FBE0F901F901895FF
:103AF0001F93CF93DF93CDB7DEB7AA970FB6F89495
:103B0000DEBF0FBECDBFE8E0F2E08091F10081930F
:103B100022E0E031F207C9F70E940B198091E8001A
:103B200083FF42C080910802909109029A3008F008
:103B30003BC0E92FF0E0E156F24E0C942E20A91D77
:103B4000CD1DD41DCD1DD41D281E4A1ED41D9F1E63
:103B5000AC1E803879F0823839F580910C028F7074
:103B60008093E9008091EB0085FB882780F9109213
:103B7000E90006C0809104029091050291118260D3
:103B80009091E800977F9093E8008093F100109265
:103B9000F1008091E8008E772DC0282F2D7F21F431
:103BA0008823D1F0823059F18091E80083FF0AC068
:103BB0008091E800877F8093E8008091EB0080622D
:103BC0008093EB00AA960FB6F894DEBF0FBECDBF70
:103BD000DF91CF911F91089580910A02813021F7E2
:103BE000933009F080E0809305021092E900809103
:103BF000E800877F8093E8000E94A01BD5CF8091CA
:103C00000A028111F2CF80910C028F7069F28093C9
:103C1000E9002091EB0020FFE8CF933031F4809150
:103C2000EB0080628093EB00E0CF9091EB0090611D
:103C30009093EB0021E030E001C0220F8A95EAF773
:103C40002093EA001092EA008091EB008860EACFAE
:103C50008111AACF10910A021F778091E30080782A
:103C6000812B8093E3008091E800877F8093E800B8
:103C70000E94A01B8091E80080FFFCCF8091E300B0
:103C800080688093E30083E0111101C082E080939B
:103C900007028ACF8058823008F086CF80910A02CE
:103CA00090910B028C3D23E09207A1F583E08A837B
:103CB0008AE289834FB7F894DE01139620E03EE054
:103CC00051E2E32FF0E050935700E49120FF03C04E
:103CD000E295EF703F5FEF708E2F90E0EA30C0F01A
:103CE000C7968D939D932F5F243159F74FBF8091D5
:103CF000E800877F8093E8006AE270E0CE010196D9
:103D00000E94AD1A8091E8008B778093E8004CCF39
:103D1000C096E7CFAE014F5F5F4F60910C020E94EB
:103D2000F319BC01892B09F43FCF9091E800977FEC
:103D30009093E80089819A810E940C1BE3CF803820
:103D400009F032CF8091E800877F8093E80080916E
:103D500003028093F1001DCF811126CF90910A02BA
:103D6000923008F021CF8091E800877F8093E800AF
:103D7000909303020E94A01B80910302882331F0DC
:103D800084E0809307020E94F7180ECF8091E30031
:103D900087FDF6CF81E0F5CF0895CF93809107029C
:103DA000882399F0C091E900CF708091EC0080FDEC
:103DB0000EC080E0C82B1092E9008091E80083FDDE
:103DC0000E94781DCF70C093E900CF91089580E8DC
:103DD000F1CF0E94F01E6894B1110C947F1F0895DA
:103DE0000E94641F88F09F5798F0B92F9927B75108
:103DF000B0F0E1F0660F771F881F991F1AF0BA958F
:103E0000C9F714C0B13091F00E947E1FB1E008954F
:103E10000C947E1F672F782F8827B85F39F0B93F41
:103E2000CCF3869577956795B395D9F73EF4909541
:103E30008095709561957F4F8F4F9F4F0895E894BF
:103E400009C097FB3EF490958095709561957F4FE2
:103E50008F4F9F4F9923A9F0F92F96E9BB27939590
:103E6000F695879577956795B795F111F8CFFAF4A0
:103E7000BB0F11F460FF1BC06F5F7F4F8F4F9F4FD1
:103E800016C0882311F096E911C0772321F09EE82F
:103E9000872F762F05C0662371F096E8862F70E095
:103EA00060E02AF09A95660F771F881FDAF7880F6F
:103EB0009695879597F9089557FD9058440F551F8B
:103EC00059F05F3F71F04795880F97FB991F61F09C
:103ED0009F3F79F087950895121613061406551F13
:103EE000F2CF4695F1DF08C0161617061806991F7F
:103EF000F1CF86957105610508940895E894BB2774
:103F000066277727CB0197F908950E94981F0C9494
:103F100009200E94FB1F38F00E94022020F0952308
:103F200011F00C94F21F0C94F81F11240C947F1FB5
:103F30000E945C1F70F3959FC1F3950F50E0551FD1
:103F4000629FF001729FBB27F00DB11D639FAA27EE
:103F5000F00DB11DAA1F649F6627B00DA11D661F3D
:103F6000829F2227B00DA11D621F739FB00DA11D5E
:103F7000621F839FA00D611D221F749F3327A00D18
:103F8000611D231F849F600D211D822F762F6A2FB4
:103F900011249F5750409AF0F1F088234AF0EE0F19
:103FA000FF1FBB1F661F771F881F91505040A9F746
:103FB0009E3F510580F00C94F21F0C947F1F5F3FD1
:103FC000E4F3983ED4F3869577956795B795F79582
:103FD000E7959F5FC1F7FE2B880F911D96958795FA
:103FE00097F9089597F99F6780E870E060E0089579
:103FF0009FEF80EC089500240A9416161706180601
:104000000906089500240A941216130614060506DC
:104010000895092E0394000C11F4882352F0BB0F6D
:1040200040F4BF2B11F460FF04C06F5F7F4F8F4FD0
:104030009F4F089597FB072E16F4009407D077FD45
:1040400009D00E94342007FC05D03EF4909581955C
:104050009F4F0895709561957F4F0895EE0FFF1F54
:104060000590F491E02D0994AA1BBB1B51E107C0F8
:10407000AA1FBB1FA617B70710F0A61BB70B881FF8
:10408000991F5A95A9F780959095BC01CD01089587
:10409000F999FECF92BD81BDF89A992780B5089510
:1040A000A8E1B0E042E050E00C947020262FF9998E
:1040B000FECF92BD81BDF89A019700B4021639F087
:1040C0001FBA20BD0FB6F894FA9AF99A0FBE089558
:1040D0000196272F0E9457200C945620DC01CB011B
:1040E000FC01F999FECF06C0F2BDE1BDF89A319608
:1040F00000B40D9241505040B8F70895F894FFCFA6
:10410000AD012808140A321E001892186D183718CD
:1041100003180197C634359391909466404D363913
:1041200097044A041404DB036E038703A003B90356
:00000001FF
