:100000000C9432050C9479050C9479050C947905BF
:100010000C9479050C9479050C9479050C94790568
:100020000C9479050C9479050C940A260C94DD2621
:100030000C94E11C0C9479050C9479050C947905C9
:100040000C9479050C9479050C9479050C94790538
:100050000C9479050C94491D0C9479050C94790540
:100060000C9479050C9479050C9479050C94790518
:100070000C9479050C9479050C9479050C94790508
:100080000C9479050C9479050C9479050C947905F8
:100090000C9479050C9479050C9479050C947905E8
:1000A0000C9479050C9479050C94790529001400B9
:1000B0001A000800150017001C0018000C001200A0
:1000C00013002A002B0004001600070009000A0094
:1000D0000B000D000E000F0033003400E1001D0086
:1000E0001B00060019000500110010003600370043
:1000F000380028003370E000E200E30001512C00DA
:100100002C0002515000510052004F0035021E02D7
:100110001F022002210222022302240225022602BB
:10012000270201004C003A003B003C003D003E002D
:100130003F002D022E022F0230023102010040004A
:1001400041004200430044004500320264024A007C
:100150004D0001000100010001000100010001004B
:1001600001000100AB00AA00A900AE0035001E008E
:100170001F0020002100220023002400250026006B
:10018000270001004C003A003B003C003D003E00CF
:100190003F002D002E002F003000310001004000F4
:1001A00041004200430044004500320064004B001F
:1001B0004E000100010001000100010001000100EA
:1001C00001000100AB00AA00A900AE00010001007F
:1001D0000100010001000100010001000100010017
:1001E0000100010001000100010001000100010007
:1001F00001000100010001000100010001000100F7
:1002000001000100010001000100010001000100E6
:1006A0000100010001000100010001006432146436
:1006B0003214783C1E1E140A0500000000010101DE
:1006C0000202030405050607090A0B0C0E0F11129E
:1006D000141517191B1D1F212325282A2C2F3134EF
:1006E00036393B3E414346494C4F5255585A5D615D
:1006F00064676A6D707376797C7F8386898C8F924C
:1007000095989B9EA2A5A7AAADB0B3B6B9BCBEC131
:10071000C4C6C9CBCED0D3D5D7DADCDEE0E2E4E67E
:10072000E8EAEBEDEEF0F1F3F4F5F6F8F9FAFAFB9E
:10073000FCFDFDFEFEFEFFFFFFFFFFFFFFFEFEFED6
:10074000FDFDFCFBFAFAF9F8F6F5F4F3F1F0EEED45
:10075000EBEAE8E6E4E2E0DEDCDAD7D5D3D0CECBD4
:10076000C9C6C4C1BEBCB9B6B3B0ADAAA7A5A29E46
:100770009B9895928F8C898683807C797673706D37
:100780006A6764615D5A5855524F4C494643413E31
:100790003B393634312F2C2A282523211F1D1B19C4
:1007A00017151412110F0E0C0B0A09070605050484
:1007B000030202010101000000000000000001012D
:1007C0000101010101010102020202020202020210
:1007D00003030303030303030404040404040505DF
:1007E00005050506060606060707070708080808A0
:1007F0000909090A0A0A0A0B0B0B0C0C0C0D0D0D4A
:100800000E0E0F0F0F1010111111121213131414DA
:10081000151516161717181819191A1A1B1C1C1D4E
:100820001D1E1F1F202021222223242525262727A5
:1008300028292A2B2B2C2D2E2F2F303132333435D3
:1008400036363738393A3B3C3D3E3F4041424344DF
:10085000464748494A4B4C4D4F50515253555657B5
:10086000585A5B5C5E5F606263646667696A6C6D60
:100870006E707173747678797B7C7E8081838486D8
:10088000888A8B8D8F91929496989A9B9D9FA1A315
:10089000A5A7A9ABADAFB1B3B5B7B9BBBDBFC1C417
:1008A000C6C8CACCCFD1D3D6D8DADCDFE1E4E6E8DB
:1008B000EBEDF0F2F5F7FAFCFF12036B006500793F
:1008C0000062006F00610072006400000016037196
:1008D000006D006B006200750069006C00640065CB
:1008E00000720000000403090409026D0004010005
:1008F000A0FA09040000010301010009211101000F
:10090000012240000705810308000A0904010001D3
:1009100003010200092111010001224D0007058297
:100920000308000A09040200010300000009211164
:100930000100012236000705830308000A090403A9
:100940000001030000000921110100012239000704
:100950000584032000011201100100000008EDFED3
:10096000606001000102000105010906A1010507FF
:1009700019E029E715002501950875018102050890
:1009800019012905950575019102950175039101DC
:100990000507190029F71500250195F87501810251
:1009A000C005010980A10185021601002603001A75
:1009B00081002A8300751095018100C0050C090192
:1009C000A1018503160100269C021A01002A9C023F
:1009D000751095018100C005010902A1010901A15D
:1009E00000050919012905150025019505750181E5
:1009F0000295017503810105010930093115812531
:100A00007F95027508810609381581257F95017546
:100A1000088106050C0A38021581257F95017508A5
:100A20008106C0C005010906A101050719E029E7F3
:100A30001500250195087501810295017508810150
:100A400005081901290595057501910295017503A0
:100A500091010507190029FF150026FF009506756D
:100A6000088100C011241FBECFEFDAE0DEBFCDBF8A
:100A700004B603FE27C08091680290916902A0919C
:100A80006A02B0916B028730904BA740B04BD1F413
:100A9000109268021092690210926A0210926B0220
:100AA00014BE84B7877F84BF0FB6F894A895809151
:100AB0006000886180936000109260000FBEE0E0EB
:100AC000F8E3099511E0A0E0B1E0E6E6F4E502C044
:100AD00005900D92A833B107D9F722E0A8E3B1E061
:100AE00001C01D92A836B207E1F70E9457230C946B
:100AF000312A0C94000090E080E008950895089554
:100B000081E00895089581E008950C9480050E9485
:100B100040152FEF84E39CE0215080409040E1F7A6
:100B200000C000000C946E1DFF920F931F93CF9393
:100B3000DF938C01FC01C081D181809183018111FF
:100B400048C08281882309F43FC0CE010E94A71AC1
:100B5000F82E682FCE010E944D1ABE018F2D0E94E3
:100B60006E07EC01B8010E948505882309F478C05E
:100B7000B801CE010E949E09882309F471C0C633D2
:100B8000F0E7DF0709F484C0C0F5C53190E7D90765
:100B900028F5C230E0E7DE0708F099C0C115F0E79C
:100BA000DF0709F458C0C130D04709F460C081E0C4
:100BB00080933A0180933B01C801DF91CF911F914F
:100BC0000F91FF900C948305CE010E947C1AF82EA1
:100BD000C4CFCE010E94A71ABE01C1CFC43390E793
:100BE000D90709F44EC0C533D04709F7F80182810F
:100BF0008823B1F10E94B10D33C0CA33F0E7DF079B
:100C000009F457C070F4F8018281C833F0E7DF07B8
:100C100009F44AC008F443C0882311F10E94F50C7E
:100C20001FC0CC33E0E7DE0709F4D5C008F448C0A4
:100C3000CD33D04709F0BBCFF8018281882309F476
:100C4000F1C010923B010E94131D909339018093D3
:100C5000380180E2CDC0F801828181110E948705B0
:100C600080E0DF91CF911F910F91FF900895F801DF
:100C700082818823A9F38091070281608093070213
:100C8000EFCFF8018281882359F30E94BB0DE8CF92
:100C9000F8018281882321F30E94A60CE1CF8823EA
:100CA000F9F20E94BE0CDCCF8823D1F20E94DD0C49
:100CB000D7CFF8018281882399F20E940D0DD0CF01
:100CC000F8018281882361F20E94250DC9CFF801C5
:100CD0008281882309F470CF0E94641C811102C0B4
:100CE0000E943E1C0E94811C90E0909359028093C8
:100CF0005802FE01E350F047809158028160E231D2
:100D0000F105C8F4EA57F94F0C94E3299806A406B4
:100D1000A806AC06B006B406B806BC06C006C406F3
:100D2000C806CC06D006D406D806DC06E006E406E3
:100D300080915802826080935802809158020E94EC
:100D4000851C0E9440158CCF809158028460F3CF9F
:100D5000809158028860EFCF809158028061EBCF7C
:100D6000809158028062E7CF809158028064E3CF7F
:100D7000809158028068DFCF809158028460EACF6A
:100D8000809158028E7FD7CF809158028D7FD3CF2C
:100D9000809158028B7FCFCF80915802877FCBCF35
:100DA000809158028F7EC7CF809158028F7DC3CF2C
:100DB000809158028F7BBFCF809158028F77BBCF35
:100DC000809158028B7FEACF90915802892F97FB30
:100DD00087F98058B0CFF8018281882361F01092A2
:100DE0003A010E94131D909339018093380182E0EB
:100DF0000E94AA1235CF80913A0181110FC08091D3
:100E00003801909139010E941F1D883C910530F4F2
:100E100086E20E947F1186E20E945B1282E00E94BD
:100E2000B1121ECF80913B0181110FC0809138011A
:100E3000909139010E941F1D883C910530F487E292
:100E40000E947F1187E20E945B1280E2E8CF0C943F
:100E5000EF09259A2D988FEF9FEF9093870080934D
:100E6000860082E88093800089E1809381000C9461
:100E70000C210E9429070C94ED09282F2D988091B0
:100E80008000211108C08F77809380001092890024
:100E9000109288000895806880938000233039F490
:100EA0008FEF9FEF9093890080938800089583E0EF
:100EB00090E0821B9109880F991F2FEF3FEF02C02E
:100EC000369527958A95E2F730938900209388001C
:100ED00008950C9482050C9469070895972F70E08B
:100EE0002CE0929F600D711D1124FB0190E3899FFE
:100EF000E00DF11D1124EE0FFF1FE455FF4F85910A
:100F000094910895FC01EE0FFF1FE455F94F859170
:100F1000949108950E946E070E941D09811520E595
:100F2000920708F040C0811530E4930708F0FAC03A
:100F3000883E910518F5803E910508F07DC1883AFC
:100F4000910580F4853A910508F087C081309105BC
:100F500009F472C120F08430910508F06DC190E071
:100F600080E008958D3B910508F482C0803C910596
:100F7000B0F3805C91090E9482070895811540E2D8
:100F8000940750F4811521E0920708F055C1803F85
:100F9000910528F390650895811530E3930708F0D3
:100FA000BEC09F70E8CF811545E5940760F58115B7
:100FB00024E5920708F0E5C0811532E5930750F467
:100FC000811541E5940708F4B0C0982F8827816FF8
:100FD000906A0895282F26952695AC0143705527D1
:100FE0008115934508F0BEC081E090E002C0880FF3
:100FF000991F4A95E2F740E2249F90011124822B29
:10100000932B9C680895803340E7940798F48032CE
:1010100020E7920708F0BFC0811536E5930708F472
:10102000B5C09C0130569F702115304108F097CF14
:1010300090620895813320E7920709F4B3C008F461
:10104000AEC0823340E7940709F4AFC083339047C2
:1010500009F085CF80E093ED0895853A910509F474
:10106000A7C0863A910509F0A6C082E890E40895E9
:10107000883A910509F4A2C0893A910509F4A1C002
:101080008A3A910509F4A0C08B3A910509F49FC0F2
:101090008C3A910509F49EC08B3B910509F49DC0E3
:1010A0008C3B910509F49CC08D3A910509F49BC0D5
:1010B000803B910509F49AC08E3A910509F499C0D4
:1010C0008F3A910509F498C0813B910509F497C0C6
:1010D000823B910509F496C0833B910509F495C0C4
:1010E000843B910509F494C0853B910509F493C0B4
:1010F000863B910509F492C0873B910509F491C0A4
:10110000883B910509F490C0893B910509F48FC093
:101110008A3B910509F48EC080E094E408959927F4
:10112000906C08959F70906A08959C0154E03695E4
:1011300027955A95E1F7922F9370482F437021E03D
:1011400030E002C0220F331F4A95E2F73C68392B8A
:1011500086958695837040E2849FC0011124822B7E
:10116000932B089581E090E002C0880F991F4A9563
:10117000E2F740E2249F90011124822B932B9A687E
:101180000895982F8827846F906A0895982F88274C
:1011900088279F714DCF80529047946D089580E0CD
:1011A00091ED089580E090ED089580E092ED08952E
:1011B00081E890E4089583E890E4089582EE94E451
:1011C000089589EE94E408958AEE94E4089585EBF9
:1011D00094E4089586EB94E4089583EB94E40895F1
:1011E00084EB94E4089587EB94E408958CEC94E404
:1011F00008958DEC94E4089583E895E408958AE8D1
:1012000095E4089582E995E4089584E995E40895C4
:1012100081E296E4089583E296E4089584E296E4F8
:10122000089585E296E4089586E296E4089587E2BB
:1012300096E408958AE296E408958238910549F18A
:10124000B0F48133910509F45CC048F4893291050A
:1012500009F452C08A32910509F458C008958533C3
:10126000910509F444C08933910599F00895833EAE
:10127000910531F138F4803E910591F0823E91055F
:10128000B1F00895863E910511F1873E910541F137
:101290000895209158022370C9F080EE90E00895DF
:1012A0002091580220FF12C089E390E00895209118
:1012B000580222FF0BC024FF2EC090E080E008956A
:1012C0002091580222FD2AC024FDF7CF08952091D5
:1012D000580223FFFBCF24FDF0CF87EE90E0089566
:1012E0002091580223FFF0CF86EE90E008952091E0
:1012F000580225FD16C008952091580225FD14C0FE
:1013000008952091580226FD12C008952091580298
:1013100026FD10C0089583EE90E0089582EE90E0DF
:10132000089589E290E0089585E390E008958AE2C7
:1013300090E0089581E390E0C9CF08950F931F9343
:10134000CF938C01FB018281811106C0C1E08C2FFB
:10135000CF911F910F910895C0914901C11125C0EE
:101360000531104799F70E949D0981E0809349015A
:101370000E94131D909348018093470110923C01F5
:1013800010923E0110923D011092400110923F01D7
:1013900010924201109241011092440110924301B7
:1013A0001092460110924501D2CF80914701909151
:1013B00048010E941F1D883C910540F680913C0128
:1013C000E82FF0E0EE0FFF1FE35CFE4F1183008378
:1013D0008F5F80933C01C0E0BACF0C947E050C94E3
:1013E0007F05CF93DF9385B7806885BF85B7806819
:1013F00085BFA0E2B1E044E251E0C1E0D0E08D91D0
:10140000E82FE295EF70F0E061A18F709E0101C0BE
:10141000220F8A95EAF7922F9095962391A382A1A5
:10142000822B82A34A175B0751F7A4E1B1E040E2A7
:1014300051E0C1E0D0E08D91E82FE295EF70F0E04F
:1014400061A18F709E0101C0220F8A95EAF7922F49
:101450009095962391A382A1822B82A34A175B07C2
:1014600051F7109253011092520110924B011092B9
:101470004A01109255011092540110924D011092A0
:101480004C01109257011092560110924F01109288
:101490004E01109259011092580110925101109270
:1014A0005001DF91CF910C9439074F925F927F9258
:1014B0008F929F92AF92BF92CF92DF92EF92FF9264
:1014C0000F931F93CF93DF93CAE4D1E000E211E0C2
:1014D00094E2A92E91E0B92EEE24E394F12C992404
:1014E0009394C880D98019821882D8018D918D017A
:1014F000E82FE295EF70F0E091A18F70970101C0A5
:10150000220F8A95EAF7892F822B81A382A1822E4E
:101510008094882182A3B0EABA95F1F784E1482E3D
:1015200081E0582E90E080E0D2017D912D01472F7F
:1015300042954F7050E0DA0190967C904881598135
:101540007F70D70102C0AA0FBB1F7A95E2F7BD01D9
:10155000672109F068C0B701082E02C0660F771F27
:101560000A94E2F7462B572B5983488301968C3017
:101570009105D1F681A1882281A282A1282B22A3E4
:1015800088819981C816D90641F090925A010E942B
:10159000131D90935C0180935B012296A016B10607
:1015A00009F09FCF80915A01882351F180915B010E
:1015B00090915C010E941F1D069710F180914A01D5
:1015C00090914B01909353018093520180914C0173
:1015D00090914D01909355018093540180914E015B
:1015E00090914F0190935701809356018091500143
:1015F00090915101909359018093580110925A0192
:101600000E94270781E0DF91CF911F910F91FF90FA
:10161000EF90DF90CF90BF90AF909F908F907F9092
:101620005F904F90089570E060E09CCFE82FF0E06D
:10163000EE0FFF1FEE5AFE4F8081918108950895AD
:1016400035B1242F2095232335B1432B3FB7F89490
:10165000FC01680F791FE617F70711F43FBF0895E3
:10166000819198E045B9000000C087FF25B9880F37
:10167000000000C000C000C025B900C09A9591F7D5
:10168000EACF24B1242B24B99B01220F331F620F10
:10169000731F0E94200B87EC90E00197F1F700C0C8
:1016A0000000089540E10C94410BCF92DF92EF923D
:1016B000FF920F931F93CF93DF93E901662309F401
:1016C00066C0E42EF12CEFEFF0E0E61BF109EE9D91
:1016D0008001EF9D100DFE9D100D1124212FE12F93
:1016E000FF27EE1AFF0A5CE3C52ED12CB6010E943B
:1016F000BB29FB01BC01E69EC001E79E900DF69E52
:10170000900D1124B6010E94BB29E230F10589F148
:1017100068F4812F262F210F309781F0242F461B4C
:10172000319761F080E020E040E008C0E430F1054E
:1017300051F128F1842F861B3597A1F7E42FF0E0B3
:10174000E754F84F4491E22FF0E0E754F84F9491BA
:10175000E82FF0E0E754F84FE49149839883EA8357
:10176000DF91CF911F910F91FF90EF90DF90CF907D
:101770000895862F810FE42F412F2E2FDFCFE42FE6
:10178000E61B842FF9CF842F462F410FD7CF842F0C
:10179000242FD4CF88E090E00C94F129AB01BC0158
:1017A00088E090E00C940F2AE4E3F2E083E0808389
:1017B000109235028FEF828383836091340270919F
:1017C000350280913602909137020C94CE0B8091B5
:1017D0003402ECE3F2E080FF06C068E070E08CE3E6
:1017E00092E00C94520B118210821282339682E0A6
:1017F000E435F807C1F7F1CFECE3F2E081836083D1
:101800004283339692E0E435F907C1F70C94E70B75
:10181000EF92FF920F931F93CF93DF9300D01F920D
:10182000CDB7DEB7182FE92EF62E042F80913402A3
:1018300090913502A0913602B09137028093380220
:1018400090933902A0933A02B0933B028091340204
:1018500080FF1FC09E012F5F3F4F812F9E2D0E9452
:10186000550B8091380210FB87F98093380216954A
:10187000809139028078812BE0FA87F980933902D0
:10188000F0923A0200933B024B8169818A810E9467
:10189000FC0B0F900F900F90DF91CF911F910F9144
:1018A000FF90EF9008950F931F93CF93DF93EC0178
:1018B000062F142F9091340290FF43C0892F8E770A
:1018C000823021F5CE010E94080C80913402C0FBC9
:1018D00087F980933402C695809135028078C82BB1
:1018E000D0FBC7F9C093350200933602109337023C
:1018F00060913402709135028091360290913702E6
:10190000DF91CF911F910F910C94CE0B892F86956B
:101910008F732EE3280F2F73243018F410913702A1
:10192000D4CF865C8F73893080F6991F9927991FD1
:10193000D0913502CD2FCC0FC92BD7FBDD27D0F9A5
:10194000C4CFDF91CF911F910F910895E4E3F2E0AE
:101950002081221F2227221F30913502432F440F5E
:10196000842F822B37FB992790F9089668E671E05F
:101970000E94CF29438162810C94530C2091340240
:10198000221F2227221F30913502432F440F842F1C
:10199000822B37FB992790F98830910540F4805AC3
:1019A0009E4F40913702609136020C94530C089779
:1019B00068E671E00E94CF29F4CF60913602683F5B
:1019C00090F4685F80913402881F8827881F909167
:1019D0003502292F220F97FB992790F94091370262
:1019E000822B0C94530C6FEFEDCF60913602683070
:1019F00090F0685080913402881F8827881F90914A
:101A00003502292F220F97FB992790F94091370231
:101A1000822B0C94530C60E0EDCF40913702483F8D
:101A200090F4485F80913402881F8827881F909126
:101A30003502292F220F97FB992790F960913602E2
:101A4000822B0C94530C4FEFEDCF4091370248306E
:101A500090F0485080913402881F8827881F909109
:101A60003502292F220F97FB992790F960913602B2
:101A7000822B0C94530C40E0EDCF9091340290FFF8
:101A80003BC09178811126C092609093340260919E
:101A900034027091350280913602909137020E9493
:101AA000CE0B80913402982F9E779230D9F4109209
:101AB0007201881F8827881F90913502292F220FD5
:101AC00097FB992790F94091370260913602822B5B
:101AD0000C94530C893110F09063D7CF8F73880F1B
:101AE000982BD3CF982F9695925C9F73963108F7D9
:101AF00091E090937201DDCF08958091070281609B
:101B00008093070281E0809373010E94641C81111D
:101B100004C00E943E1C0E94D40B0E94CA0B60931A
:101B200034027093350280933602909337026E77B9
:101B300061F40E94D40B0E94CA0B6093340270932C
:101B40003502809336029093370281E080937201D0
:101B50008091340280FF04C086958F730C943D0DF4
:101B600008958091340286958F738F5F893108F0D4
:101B700081E00C943D0D90913402892F8E7F90FF6F
:101B800081608093340260913402709135028091BB
:101B90003602909137020E94CE0B8091340280FF72
:101BA00004C086958F730C943D0D109272012FEF37
:101BB00080E792E0215080409040E1F700C00000B3
:101BC0000C94E70BCF93C82F809170019091710115
:101BD0000E941F1DEC2FF0E0EB54F94FE491E81741
:101BE000190609F010F50E94131D9093710180935E
:101BF0007001E0916F01F0E0E754F94F449180915A
:101C00003402881F8827881F90913502292F220FC0
:101C100097FB992790F960913602822B0E94080C5D
:101C200080916F018F5F80936F01CF910895CF9363
:101C3000C82F80916D0190916E010E941F1DEC2FA5
:101C4000F0E0EE54F94FE491E817190609F0E8F4D2
:101C50000E94131D90936E0180936D014091370295
:101C60006091360280916B0190916C010E94080C8A
:101C700080916B0190916C01019668E671E00E9481
:101C8000BB2990936C0180936B01CF910895CF9203
:101C9000DF92FF920F931F93CF93DF93F82E8091E3
:101CA000690190916A010E941F1DEF2DE695F0E0F9
:101CB000EE54F94FE491E817190609F0A8F50E94CF
:101CC000131D90936A01809369010CE312E0D0E048
:101CD000C0E088E6C82EDD24D394809167019091FE
:101CE00068018C0F9D1FB6010E94BB29980140918D
:101CF0003702609136020E94550BAD960D5F1F4F63
:101D0000C83681E0D80749F70E94E70B8091670148
:101D100090916801F0FE10C00196BE010E94BB299F
:101D20009093680180936701DF91CF911F910F918C
:101D3000FF90DF90CF9008950197F2CFAF92BF92BE
:101D4000CF92DF92EF92FF920F931F93CF93DF9387
:101D5000C82FFF24FA9480FD02C0FF24F3948091E1
:101D60006501909166010E941F1DC695EC2FF0E061
:101D7000E155F94FE491E817190611F008F053C046
:101D80000E94131D9093660180936501CCE3D2E01D
:101D900010E000E097E0C92ED12C198218821A8237
:101DA00087E0A82EB12CE12C809164018E0D87FD77
:101DB000885F082E000C990B08171907E9F4209189
:101DC00037022A9DC0012B9D900D1124B6010E945F
:101DD000CF29462F80913402881F8827881F909131
:101DE0003502592F550F97FB992790F99E01609165
:101DF0003602852B0E94550BEF0C81E0A81AB10822
:101E000099F60F5F1F4F23960830110531F60E9497
:101E1000E70B8091640191E0F91212C081110EC0AC
:101E200087E080936401DF91CF911F910F91FF9024
:101E3000EF90DF90CF90BF90AF9008958150F1CF99
:101E400090E0019687709927ECCFBF92CF92DF92F6
:101E5000EF92FF920F931F93CF93DF93CDB7DEB72F
:101E600068970FB6F894DEBF0FBECDBF182F8091D4
:101E70006201909163010E941F1DE12FF0E0E45583
:101E8000F94FE491E817190611F008F071C00E94AB
:101E9000131D90936301809362018E010F5F1F4FAA
:101EA000F12CE12C6801F801118210821282B12C10
:101EB0009091000180916101B99E800D11248830BC
:101EC0000CF087E087FD80E0082E000C990BE816E7
:101ED000F906A1F480913402881F8827881F909109
:101EE0003502592F550F97FB992790F9980140918A
:101EF000370260913602852B0E94550BB394F7E0B0
:101F0000BF12D6CF8FEFE81AF80A0D5F1F4FE8E037
:101F1000EE16F10441F6ACE3B2E089E090E09C01FA
:101F200027703327F901EE0FFF1FE20FF31FEC0DAF
:101F3000FD1D218111962C93119720812C932281D4
:101F400012962C931297019613968131910539F7C9
:101F50000E94E70B90910001809161019130E1F4C2
:101F60008A3FB4F489EF809361018FEF8093000181
:101F700068960FB6F894DEBF0FBECDBFDF91CF914C
:101F80001F910F91FF90EF90DF90CF90BF90089539
:101F9000815080936101ECCF8F302CF08EE08093E4
:101FA000610181E0E3CF8F5FF4CFCF93DF93809126
:101FB0005F01909160010E941F1D883E934028F1AF
:101FC0000E94131D9093600180935F0180915D01D9
:101FD00090915E0101968170992790935E018093A4
:101FE0005D01CCE3D2E09E01409137026091360260
:101FF00090E080E00E94550B239682E0C435D8071C
:1020000091F7DF91CF910C94E70BDF91CF91089579
:1020100080917201882371F18091340286958F73CB
:102020009EE3980F9F73943018F482500C94E20D45
:102030009AE3980F9F73933018F486500C94170E00
:1020400097E3980F9F73963018F489500C94470EBD
:1020500091E3980F9F73963018F48F500C949E0E56
:102060009BE2980F9F73933018F485510C94250FC1
:102070000C94D50F08959093790180937801089579
:10208000E0917801F0917901309721F00190F08191
:10209000E02D099480E00895E0917801F0917901B4
:1020A000309721F00280F381E02D09940895E091AA
:1020B0007801F0917901309721F00480F581E02DCD
:1020C00009940895209176013091770128173907F6
:1020D00071F09093770180937601E0917801F0910F
:1020E0007901309721F00680F781E02D0994089559
:1020F00020917401309175012817390771F0909380
:10210000750180937401E0917801F0917901309725
:1021100021F00084F185E02D0994089508950C9430
:102120008E100E940A1D0E94F1090E94DB1D0E9470
:102130000C210C947D0D5F926F927F928F929F92F3
:10214000AF92BF92CF92DF92EF92FF920F931F93C5
:10215000CF93DF93CDB7DEB72A970FB6F894DEBFE3
:102160000FBECDBF0E94550A9BE7A92E91E0B92E64
:1021700010E000E088248394912C502E802F0E9440
:10218000160B7C01F501C190D1905F01C816D906EC
:1021900009F45EC08091070281FD0E941F0B90E050
:1021A00080E0CE24DF243401082E02C0660C771CA8
:1021B0000A94E2F7960126213721232B09F443C024
:1021C0008E835F82E620F72081E0EF2809F480E02B
:1021D00088870E94131D8160782F9A8789874E8196
:1021E0005F8168858A850E945511000F111FF801D3
:1021F000E558FE4F80819181682679267182608240
:102200000E945E200E94401090917A018917B9F1D6
:102210000E94401080937A012A960FB6F894DEBF90
:102220000FBECDBFDF91CF911F910F91FF90EF9027
:10223000DF90CF90BF90AF909F908F907F906F90E6
:102240005F900C946B0701968C30910509F0ABCF31
:102250000F5F1F4F0430110509F08FCF8FEF898377
:102260008A831B820E94131D8160782F9D838C833B
:1022700049815A816B818D810E945511C1CF2A9667
:102280000FB6F894DEBF0FBECDBFDF91CF911F9187
:102290000F91FF90EF90DF90CF90BF90AF909F9005
:1022A0008F907F906F905F900895CF93DF93CDB71D
:1022B000DEB72B970FB6F894DEBF0FBECDBF4F83AE
:1022C000588769877A878B871E821D8285E0FE0189
:1022D0003796DE01119601900D928A95E1F74981BA
:1022E0005A816B817C818D819E812B960FB6F894EB
:1022F000DEBF0FBECDBFDF91CF910C94F2178823C4
:1023000009F4D8C0823871F40E94401081FDD2C017
:1023100089E30E94471B0E940F1C89E30E94841BD3
:102320000C940F1C833859F40E94401080FDC2C0E9
:1023300083E50E94471B0E940F1C83E5EFCF843882
:1023400059F40E94401082FDB5C087E40E94471BEB
:102350000E940F1C87E4E2CF9CEF980F913A18F48B
:102360000E94471BDDCF90E2980F983050F48770A1
:1023700091E001C0990F8A95EAF7892F0E94C61B48
:10238000CFCF9BE5980F933070F4853A31F0863AC1
:1023900039F083E890E00C94621081E890E0FBCF84
:1023A00082E890E0F8CF98E5980F953108F082C068
:1023B000883A09F440C0893A09F440C08A3A09F4DD
:1023C00040C08B3A09F440C08C3A09F440C08B3BC2
:1023D00009F440C08C3B09F440C08D3A09F440C078
:1023E000803B09F440C08E3A09F440C08F3A09F4AA
:1023F00040C0813B09F440C0823B09F440C0833BAC
:1024000009F440C0843B09F440C0853B09F440C056
:10241000863B09F440C0873B09F440C0883B09F47F
:1024200040C0893B09F440C08A3B09F440C090E0B9
:1024300080E00C94781082EE90E0FBCF89EE90E083
:10244000F8CF8AEE90E0F5CF85EB90E0F2CF86EB07
:1024500090E0EFCF83EB90E0ECCF84EB90E0E9CF1E
:1024600087EB90E0E6CF8CEC90E0E3CF8DEC90E052
:10247000E0CF83E891E0DDCF8AE891E0DACF82E92E
:1024800091E0D7CF84E991E0D4CF81E292E0D1CF3F
:1024900083E292E0CECF84E292E0CBCF85E292E07D
:1024A000C8CF86E292E0C5CF87E292E0C2CF8AE24F
:1024B00092E0BFCF0895882309F44BC0823871F4AD
:1024C0000E94401081FF45C089E30E94471B0E9483
:1024D0000F1C89E30E94841B0C940F1C833859F451
:1024E0000E94401080FF35C083E50E94471B0E9478
:1024F0000F1C83E5EFCF843859F40E94401082FF0F
:1025000028C087E40E94471B0E940F1C87E4E2CF8B
:102510009CEF980F913AF0F290E2980F983050F4B7
:10252000877091E001C0990F8A95EAF7892F0E9480
:10253000CC1BD2CF9BE5980F933020F490E080E045
:102540000C946210885A853120F490E080E00C945D
:1025500078100895882321F00E94C61B0C940F1C4C
:102560000895882321F00E94CC1B0C940F1C089521
:102570008F929F92AF92BF92DF92EF92FF920F9352
:102580001F93CF93DF937C01D62FC72FFC010581CA
:1025900002950F70128111110E94E51B0E94401BD1
:1025A000D82E882371F0112321F180E28D0F88301D
:1025B00000F182E00E942A1B0E94401B91E0D82E6D
:1025C000D926EC2FE295EF70F0E0E751FD4E0C9428
:1025D000E329FB12FB124B134B138D13A913281382
:1025E0002813B41328134C144C14BF14C814281304
:1025F000E814D12CE6CF0C2F0F70C07F11F002959C
:10260000007F1123A9F0002359F080E28D0F88305C
:1026100010F0D11109C0802F0E94C61B0E940F1C10
:102620008D2F0E947F1114C0802F0E94D71BF6CFE0
:102630008D2F0E945B12002359F080E28D0F8830AD
:1026400010F0D11124C0802F0E94CC1B0E940F1CBF
:10265000DD2009F4C4C10E941D1B80FDC0C1F7012B
:1026600012820E94171B0E949119C7010E94FB143D
:102670000E94171BDF91CF911F910F91FF90EF9058
:10268000DF90BF90AF909F908F900C94B219802FE5
:102690000E94DD1BDBCFFC2FFF70BF2EC07FC0323E
:1026A00019F0B29480EFB822DD2369F0D13029F11E
:1026B000112369F1002359F0F701858180FFB0CF24
:1026C0008F70858304C0112361F0011104C08B2D2C
:1026D0000E94AA12BDCF8B2D0130D1F70E94F91BA9
:1026E000B7CF011106C00E94FC1B8B2D0E94B112B6
:1026F000AFCF013009F4ACCFF6CF112321F0063073
:1027000008F0A6CFE4CF053008F0A2CFEECF00232B
:1027100061F38D2F0E945B129BCF8C2F869586953F
:10272000837069F0813009F093CF8D2F9C2F9370C7
:10273000111102C090E080E00E94781089CF8D2FA7
:102740009C2F9370111102C090E080E00E946210F3
:102750007FCF8D2F112329F00E94671F0E945320E5
:1027600077CF0E94CF1FFACF8C2F837009F047C01C
:1027700011116ECF2D2F229526952770220F220F33
:102780006D2F6F70862E912CB12CA12C022E04C0BF
:10279000880C991CAA1CBB1C0A94D2F760E070E05C
:1027A000CB01D4FF0FC06FE070E080E090E004C088
:1027B000660F771F881F991F2A95D2F7609570952D
:1027C00080959095C695C695C370C23051F080F43F
:1027D000682979298A299B29C13071F00E943A1908
:1027E00037CF682979298A299B290E94561930CF29
:1027F0000E943A19C501B4010E941E1929CF86957D
:10280000112311F08C2F8170882309F421CF2D2FF3
:10281000229526952770220F220F6D2F6F70862E1E
:10282000912CB12CA12C022E04C0880C991CAA1C3E
:10283000BB1C0A94D2F760E070E0CB01D4FF0FC05C
:102840006FE070E080E090E004C0660F771F881FA3
:10285000991F2A95D2F76095709580959095C695A9
:10286000C695C370C23051F080F4682979298A294D
:102870009B29C13071F00E94141AEACE6829792987
:102880008A299B290E94301AE3CE0E94141AC5019E
:10289000B4010E94F819DCCEE0E2ED0FE53108F05A
:1028A00062C0F0E0EA5AFB4E0C94E3296B146B14FF
:1028B0006B146B146B146B146B146B146B146B1420
:1028C0006B146B146B146B146B146B1478148614E8
:1028D0008D1494149E14DF708C2F8F71112321F0AE
:1028E0000E9491198D2FF4CE0E94B2198D2FFECE29
:1028F000112341F0053008F0ABCE8C2F8F710E9470
:10290000D719A6CE063008F0A3CEF7CF8C2F8F7143
:10291000112339F00E9491199BCE8C2F8F711123B6
:10292000C9F30E94B21994CE112329F08C2F8F7114
:102930000E947C198DCE0E9472198ACE112349F013
:10294000CF718C2F0E94911963E08C2F0E94211B64
:102950007FCE81E00E942A1B023008F479CE82E00B
:102960000E942A1B75CE112329F0011159CE8C2FFC
:102970008F71D0CF0111CDCE8C2F8F71D2CF4C2F34
:102980004F706D2FC7010E947B050E949B1860CE7F
:1029900011115ECECF70C230A9F040F4CC2379F093
:1029A000C13009F055CE0E94352152CEC33069F0B6
:1029B000C43009F04DCE8D2F0E94842149CE0E9453
:1029C0001D2146CE0E944E2143CE0E94612140CE61
:1029D0004C2F4F706D2FC7010E946D0739CEDF91CC
:1029E000CF911F910F91FF90EF90DF90BF90AF902C
:1029F0009F908F9008950F931F93CF93DF93EC01D7
:102A0000988189812B813C81232B39F08F3F19F4E8
:102A100081E09F3F19F080E001C081E080FD17C098
:102A2000CE010E949405882391F0688179818A8182
:102A30000E94F31A8C010E944C1A0E941319B801CB
:102A4000CE01DF91CF911F910F910C94B812DF91BD
:102A5000CF911F910F9108950E94E51B0E94F61BD4
:102A60000E94B81B0E940F1C0E9400210E9453204C
:102A700090E080E00E94621090E080E00C9478107A
:102A80000E94D41B0C942C150E94E91AE92FE295A0
:102A9000EF70E250EE30E0F4F0E0EF5AFA4E0C94B2
:102AA000E3295F155F15681568156A1568156815BF
:102AB00068155F155F156F15681568156F15803FF0
:102AC00019F020F4803E20F481E00895843FE1F382
:102AD00080E00895803EC0F3813FD1F7F5CF93FBAE
:102AE000882780F90895CF93DF9300D000D01F92FC
:102AF000CDB7DEB70F900F900F900F900F90DF9132
:102B0000CF910895CF93DF9300D000D000D0CDB700
:102B1000DEB726960FB6F894DEBF0FBECDBFDF91AD
:102B2000CF9108951F93CF93DF93C091840116E056
:102B3000809185018C1304C0DF91CF911F9108957E
:102B4000D0E01C9FF0011D9FF00D1124EA57FE4FAD
:102B50004081518162817381848195810E948215B7
:102B60002196C770E5CF4091B6015091B7016091B1
:102B7000B8017091B9018091BA019091BB010C9498
:102B800082151F93CF93DF938091BB01807FD1F497
:102B90008091B8018823B1F080918401D0918501A2
:102BA000B091B601C091B7014091B9015091BA01FD
:102BB000A1E0BF3F09F0A0E0BA016095709516E072
:102BC000D81304C0DF91CF911F91089521E04115E2
:102BD000510521F02A2FCF3F09F020E090E020FDA1
:102BE00038C0189FF001199FF00D1124EA57FE4FCD
:102BF00021812C132EC020812B132BC02281211167
:102C000028C0238134812417350700F1241B350B9C
:102C1000283C3105F0F42091BB012F7020612093F6
:102C2000BB0126E0289FF001299FF00D1124E557F4
:102C3000FE4F80818F708061808386EB91E00E94DF
:102C4000FB14DF91CF911F910C949215260F371F23
:102C5000DFCF01968770B4CFAF92BF92CF92DF9251
:102C6000EF92FF920F931F93CF93DF93CDB7DEB711
:102C700061970FB6F894DEBF0FBECDBF8C0185E023
:102C8000F801DE011D9601900D928A95E1F7D801B9
:102C90004C9111965C9111971296EC903091B6017F
:102CA0006091B7018091B9019091BA0121E000973C
:102CB00031F06F3F19F421E03F3F09F020E0B22FDF
:102CC000B170BB2E20FD80C1F801C380D480A090DC
:102CD000B801AA2009F427C1C816D906D0F1D60137
:102CE000A81BB90BCD01FF24F394883C910508F093
:102CF000F12C8091BB01982F907FFF2009F4CAC06E
:102D0000911187C0FE2C651329C0341327C0E11030
:102D100025C08F7080618093BB010E94B31586EB44
:102D200091E00E94FB148091BB01F80185838F2DF7
:102D300061960FB6F894DEBF0FBECDBFDF91CF9185
:102D40001F910F91FF90EF90DF90CF90BF90AF90C9
:102D50000895809590958C0D9D1DC5CF81E0CD285F
:102D600031F05F3F19F481E04F3F09F080E080FDD2
:102D700024C081E08E25F82FF170DF2E80FF3FC048
:102D8000809184012091850136E0821318C04D871F
:102D90005E878D859E850E94E91A292F22952F70C6
:102DA000223008F1243030F59F7009F1D8011596D2
:102DB0009C91907FE1F4FB2CBACF80E0DCCF90E0D7
:102DC000389FF001399FF00D1124EA57FE4F6181C1
:102DD000561306C06081461303C062816E110FC096
:102DE00001968770D2CF9F7011F0882321F3805E07
:102DF000883008F3C8010E94FB14BD2CDCCFEE2004
:102E000009F495CF8091BB0181608093BB01F12CC7
:102E10008ECF651312C0341310C0E1100EC0F8013C
:102E20008583C8010E94FB1486E0F801A6EBB1E09F
:102E300001900D928A95E1F741C04D875E878D859F
:102E40009E850E944415882309F4C8C0EE2009F429
:102E5000C5C08091BB01803270F02091B6013091E5
:102E6000B70138872F831986DB86CA868C87CE0107
:102E700007960E94FB1486E0F801A6EBB1E00190F2
:102E80000D928A95E1F70E94C1150E94B315FF24A7
:102E9000F3944DCF911115C07C2DD98AC88A6E2D1F
:102EA00089890E94731586EB91E00E94FB1486E0ED
:102EB000E6EBF1E0DF011D928A95E9F70E94B31578
:102EC00036CF651312C0341310C0E1100EC0F801E4
:102ED0008583C8010E94FB14E6EBF1E086E0DF0188
:102EE0001D928A95E9F7FA2C22CF4D875E878D8552
:102EF0009E850E944415882309F470C0EE2009F4D1
:102F00006DC08091BB01803208F4B5CF2091B6012D
:102F10003091B7013A8329831B82DD82CC828E8374
:102F2000CE010196A6CFC816D90638F1F601E81BE6
:102F3000F90BCF01F12C883C910508F03DC0FE2C27
:102F4000EE2009F44BC0651326C0341324C08091D1
:102F5000BB0180FD17C0982F907FA1F0D801159676
:102F60008C931597903F09F45CCF982F907F905FDA
:102F70008F70892B15968C9354CF809590958C0DDE
:102F80009D1DD8CF86E0F801A6EBB1E001900D922F
:102F90008A95E1F7CCCE4D875E878D859E850E9410
:102FA0004415811168CF8091BB0181608093BB0182
:102FB000C8010E94FB14BBCE7C2DD98AC88A6E2D15
:102FC00089890E94731573CFEE2041F04D875E878B
:102FD0008D859E850E94441581114DCFC8010E94A8
:102FE000FB1455CF1F93CF93DF93CDB7DEB72C974C
:102FF0000FB6F894DEBF0FBECDBF4F8358876987E9
:103000007A878B879C87CE0107960E942C1688238F
:1030100009F442C09F8188852A853B85232B39F09E
:103020008F3F19F481E09F3F19F080E001C081E0FB
:1030300080FD08C04F81588569857A858B859C8580
:103040000E94821516E08091840190918501891774
:1030500009F467C0819FC00111248A579E4F0E94C6
:103060002C16882309F45DC0E09184011E9FF001B5
:103070001124EA57FE4F408151816281738184811E
:1030800095810E9482158091840190E0019687705D
:10309000992780938401D7CF86E0FE013796DE0121
:1030A000119601900D928A95E1F79F8188852A8576
:1030B0003B85232B39F08F3F19F481E09F3F19F0B6
:1030C00080E001C081E080FDBDCF2091850130E02E
:1030D000C901019687709927409184014817190604
:1030E00099F096E0929FD001939FB00D1124AA57BA
:1030F000BE4FFE01319601900D929A95E1F78093B3
:1031000085010E9492159ECF0E9440151092850164
:103110001092840186E0E6EBF1E0DF011D928A95D2
:10312000E9F72C960FB6F894DEBF0FBECDBFDF9146
:10313000CF911F910895EF92FF920F931F93CF931A
:10314000DF938C01892B81F0F12CEE24E394E801CC
:103150002196F8018491843770F4843008F05FC0C0
:103160008130B1F08230A1F1DF91CF911F910F91A9
:10317000FF90EF900895853709F44CC008F43DC0E6
:103180009CE7980F903780F78F770E945B1249C0B9
:103190000E5F1F4FFE01849190E2980F983060F40B
:1031A0008770FE2D01C0FF0F8A95EAF78F2F0E94CE
:1031B000E81B0E940F1C02C00E947F118F2D8150BE
:1031C00030F2EFE9FFE03197F1F700C00000F7CFF0
:1031D0000E5F1F4FFE01849190E2980F983050F4DB
:1031E0008770FE2D01C0FF0F8A95EAF78F2F0E948E
:1031F000EE1BDFCF0E945B12E1CF0E5F1F4FFE017F
:10320000C491C150D8F28FE99FE00197F1F700C057
:103210000000F7CF0E5F1F4FFE01F490CFCF0E944A
:103220007F118E01CBCF08956093DE017093DF0193
:103230008093E0019093E1010C942C150F931F9360
:103240000091DE011091DF012091E0013091E10158
:10325000DC01CB01802B912BA22BB32B8093DE01C1
:103260009093DF01A093E001B093E1011F910F91D2
:103270000C942C150F931F930091DE011091DF0128
:103280002091E0013091E101DC01CB018023912309
:10329000A223B3238093DE019093DF01A093E0018A
:1032A000B093E1011F910F910C942C150F931F9374
:1032B0000091DE011091DF012091E0013091E101E8
:1032C000DC01CB0180279127A227B3278093DE0161
:1032D0009093DF01A093E001B093E1011F910F9162
:1032E0000C942C151092DA011092DB011092DC0183
:1032F0001092DD010C942C1541E050E060E070E08C
:1033000004C0440F551F661F771F8A95D2F740935C
:10331000DA015093DB016093DC017093DD010C94C2
:103320002C1541E050E060E070E004C0440F551FF0
:10333000661F771F8A95D2F78091DA019091DB01A1
:10334000A091DC01B091DD01842B952BA62BB72B2E
:103350008093DA019093DB01A093DC01B093DD014F
:103360000C942C1541E050E060E070E004C0440F84
:10337000551F661F771F8A95D2F740955095609527
:1033800070958091DA019091DB01A091DC01B09100
:10339000DD0184239523A623B7238093DA0190933C
:1033A000DB01A093DC01B093DD010C942C1541E00E
:1033B00050E060E070E004C0440F551F661F771FA7
:1033C0008A95D2F78091DA019091DB01A091DC011E
:1033D000B091DD0184279527A627B7278093DA01CE
:1033E0009093DB01A093DC01B093DD010C942C15CC
:1033F0000F931F930091DA011091DB012091DC0102
:103400003091DD01DC01CB01802B912BA22BB32B62
:103410008093DA019093DB01A093DC01B093DD018E
:103420001F910F910C942C150F931F930091DA01AB
:103430001091DB012091DC013091DD01DC01CB0139
:1034400080239123A223B3238093DA019093DB019D
:10345000A093DC01B093DD011F910F910C942C150A
:103460000F931F930091DA011091DB012091DC0191
:103470003091DD01DC01CB0180279127A227B32702
:103480008093DA019093DB01A093DC01B093DD011E
:103490001F910F910C942C1508952CE0929F800D94
:1034A0001124982F977071E001C0770F9A95EAF771
:1034B00086958695869525E0829FC001112450E06F
:1034C00040E0A62FB0E0FC01E40FF51FE454FE4FEE
:1034D00060819D01042E02C0369527950A94E2F77B
:1034E0002170219526272723262720834F5F5F4FB2
:1034F0004530510541F708952CE0929F800D11242D
:10350000982F977086958695869525E0829FA001D5
:10351000112470E060E080E0FA01E60FF71FE45448
:10352000FE4F208130E0092E02C0369527950A947F
:10353000E2F721703327062E01C0220F0A94EAF722
:10354000822B6F5F7F4F6530710531F70895BF9211
:10355000CF92DF92EF92FF920F931F93CF93DF935F
:103560008C01C090DA01D090DB01E090DC01F0909A
:10357000DD018091DE019091DF01A091E001B09129
:10358000E101C82AD92AEA2AFB2ACFE1D0E0BC2EE1
:10359000D701C6010C2E04C0B695A79597958795BF
:1035A0000A94D2F780FD0EC0219788F7B12C8B2D9D
:1035B000DF91CF911F910F91FF90EF90DF90CF900F
:1035C000BF900895B8018C2F0E948A07019761F37C
:1035D000EECFCF93DF93EC010E94A71ABE01DF91DB
:1035E000CF910C948A071F93CF93DF93EB019091B7
:1035F0008301992331F0CB01DF91CF911F910C947E
:10360000E91A882379F0CB010E94A71A182F682F96
:10361000CE010E944D1ABE01812FDF91CF911F91E3
:103620000C948A07CB010E947C1A182FF4CF80914A
:10363000E20185958595859508958091E2018770D1
:10364000089598E0899F90011124622B6093E20114
:103650000C9491199091E201809589238093E20165
:10366000282F277061F4282F082E000C330B921797
:10367000130629F08595859585950C94B2190895C2
:103680009091E201977081E009F480E008959091B3
:1036900013019923E1F09091580297FF18C0E82F89
:1036A000E695E695E695EF3139F1209101013091EB
:1036B0000201E20FF32FF11D877021E030E001C01D
:1036C000220F8A95EAF78181822B818308952091C8
:1036D000010130910201F90132969FEF40E05191D2
:1036E000851751F09F3F19F4511101C0942F4F5F7E
:1036F0004E31A9F79F3F09F40895290F311D97FD19
:103700003A95F90182830895909113019923F1F07C
:103710009091580297FF1AC0E82FE695E695E69536
:10372000EF3129F12091010130910201E20FF32FD5
:10373000F11D282F277081E090E001C0880F2A95A5
:10374000EAF7809591818923818308952091010171
:1037500030910201F9013296205E3F4F9191891319
:1037600003C0DF0111971C92E217F307B9F7089520
:1037700081E090E0E0910101F0910201E80FF91F72
:103780001082019680329105A9F708959091060262
:10379000892B809306020895982F909580910602B8
:1037A000892380930602089510920602089590914D
:1037B0000502892B809305020895982F909580919A
:1037C0000502892380930502089510920502089549
:1037D00090910402892B809304020895982F90956C
:1037E00080910402892380930402089510920402B8
:1037F00008958093E30108951092E30108952091C4
:10380000010130910201F9013196205E3F4F80E0C5
:10381000919191118F5FE217F307D1F70895E0912D
:103820000101F0910201809106028083E091010183
:10383000F0910201808190910502892B8083E091B3
:103840000101F0910201808190910402892B808313
:103850009091E301992361F0E0910101F09102015F
:103860008081892B80830E94FF1B81111092E301CC
:1038700080910101909102010C944C106DEE7EEF4D
:1038800090E080E00E941B2A60E082E090E00E94CD
:10389000FD2960E083E090E00E94FD2960E084E083
:1038A00090E00E94FD2960E085E090E00E94FD2903
:1038B00060E086E090E00E94FD2940E050E0BA011F
:1038C00088E090E00C940F2A90E080E00E94F729B5
:1038D00021E08D3E9E4F09F020E0822F089582E086
:1038E00090E00C94E929682F82E090E00C94FD2987
:1038F00083E090E00C94E929682F83E090E00C9439
:10390000FD2984E090E00C94E929682F84E090E0A0
:103910000C94FD2986E090E00C94E929682F86E05C
:1039200090E00C94FD2980915F02843051F1109257
:10393000080288E190E020E40FB6F894A8958093FF
:1039400060000FBE2093600080E00E943D0780E091
:103950000E946B0783B7817F846083BF83B78160D8
:1039600083BF7894889583B78E7F83BF0FB6F89412
:10397000A89580916000886180936000109260003B
:103980000FBE089508950895CF930E94C21C0E940F
:10399000550A0E94C31CC0E08C2F0E94160B892B75
:1039A00031F4CF5FC430C1F780E0CF91089581E05A
:1039B000FCCF0E9440150E940C210E9440100C94E4
:1039C0006B071F920F920FB60F9211248F939F9344
:1039D000AF93BF9380910802811113C0809154026C
:1039E00090915502A0915602B09157024196A11DA7
:1039F000B11D8093540290935502A0935602B09348
:103A00005702BF91AF919F918F910F900FBE0F9072
:103A10001F90189582E084BD93E095BD9AEF97BD05
:103A200080936E0008952FB7F8948091540290917E
:103A30005502A0915602B09157022FBF0895CF9220
:103A4000DF92EF92FF920F931F932FB7F89440915C
:103A500054025091550260915602709157022FBF47
:103A60006A017B01EE24FF248C0130E020E0C016C7
:103A7000D106E206F30650F0481B590BCA011F910C
:103A80000F91FF90EF90DF90CF9008954150510932
:103A9000F3CF1F920F920FB60F9211248F939F9323
:103AA000AF93BF938091540290915502A09156021A
:103AB000B09157020196A11DB11D809354029093BD
:103AC0005502A0935602B0935702BF91AF919F91B8
:103AD0008F910F900FBE0F901F9018950E948F2509
:103AE000F8942FEF87EA91E6215080409040E1F76B
:103AF00000C0000087E090EBDC01809368029093A7
:103B00006902A0936A02B0936B0288E19CE00FB651
:103B1000F894A895809360000FBE90936000FFCF4B
:103B2000AF92BF92CF92DF92EF92FF920F931F93CB
:103B3000CF93C0E0CC24C394D12CE82EF12C8C2F51
:103B40000E94160B5C0110E000E0C601002E02C0CE
:103B5000880F991F0A94E2F78A219B21892B99F4F7
:103B60000F5F1F4F0C30110581F7CF5FC43039F75D
:103B700080E0CF911F910F91FF90EF90DF90CF9059
:103B8000BF90AF900895602F7C2F80E00E946E0759
:103B9000E816F90629F781E0ECCFCF93C82F8CE225
:103BA0000E94901D882321F08C2FCF910C94901DA2
:103BB00080E0CF910895CF930E94641C811102C0D0
:103BC0000E943E1CC5E608C00E94550A8FE39CE98E
:103BD0000197F1F700C00000C150B1F789E20E94DF
:103BE000CD1D8111EFC08AE20E94CD1D81110E947E
:103BF0003E1C85E00E94CD1D81110E946E1D0E9419
:103C00006F1C8093070287E00E94CD1D882371F00E
:103C10008BE10E94CD1D882309F4B1C09091070269
:103C2000892F8D7F91FF8260809307028091070228
:103C30000E94731C0E94811C90E090935902809313
:103C4000580280EE0E94CD1D882341F090915802C9
:103C5000892F8E7F90FF81608093580289E30E94B4
:103C6000CD1D882341F090915802892F8D7F91FFBF
:103C700082608093580282EE0E94CD1D882341F01D
:103C800090915802892F8B7F92FF84608093580215
:103C900086EE0E94CD1D882341F090915802892F15
:103CA000877F93FF88608093580283EE0E94CD1D2A
:103CB000882341F090915802892F8F7E94FF806174
:103CC0008093580285E30E94CD1D882341F0909196
:103CD0005802892F8F7D95FF80628093580281E37F
:103CE0000E94CD1D882341F090915802892F8F7B2F
:103CF00096FF80648093580281E10E94CD1D882345
:103D000041F090915802892F97FB87F98058809352
:103D10005802809158020E94851C87E20E94CD1DA6
:103D2000C82F8EE10E94CD1D8111C2608FE10E94DB
:103D3000CD1D8111C46080E20E94CD1D8111C8603B
:103D400081E20E94CD1D8111C06182E20E94CD1DE1
:103D50008111C06283E20E94CD1D8111C06484E2A2
:103D60000E94CD1D882341F1C0688C2F0E947C1CCD
:103D70006C2F70E090E080E0CF910C9414198EE0ED
:103D80000E94CD1D882339F090910702892F8B7FE7
:103D900092FF846049CF80E10E94CD1D909107027F
:103DA000882329F0892F877F93FF88603DCF892F53
:103DB0008E7F90FF816038CFC111D7CF0E94781CD1
:103DC000682FD7CFCF91089580910B0280FF12C04A
:103DD0006091060185E0689FB00111247595679593
:103DE0007595679560387105A8F561157105A1F1A4
:103DF000862F089581FF09C06091060185E0689FC4
:103E0000B001112475956795EDCF82FF07C06091D1
:103E1000060185E0689FB0011124E4CF20910C02D7
:103E20002223A9F0909105016091060185E0689F29
:103E3000B00111242917B0F6269FA001279F500D2D
:103E40001124692F70E0CA010E94CF29CBCF65E011
:103E500070E0CECF8FE7089581E0089580910B0246
:103E600080FF0CC06091040170E0759567957595B1
:103E700067956115710549F1862F089581FF06C088
:103E80006091040170E075956795F3CF609104012E
:103E900082FD0BC090910C029923A1F06091030167
:103EA00080910401961738F0682F70E06038710532
:103EB00000F38FE70895899FC001112470E00E94EC
:103EC000CF29F4CF61E070E0D7CF81E00895803F43
:103ED00031F40E94E41E819580930F020895813F82
:103EE00019F40E94E41EF8CF823F31F40E94E41ED0
:103EF000819580930E020895833F19F40E94E41E79
:103F0000F8CF893F29F40E942E1F80931002089554
:103F10008A3F21F40E942E1F8195F7CF8B3F31F409
:103F20000E942E1F81958093110208958C3F19F4F1
:103F30000E942E1FF8CF843F31F480910D028160E2
:103F400080930D020895853F21F480910D028260D7
:103F5000F7CF863F21F480910D028460F1CF873F37
:103F600021F480910D028860EBCF883F21F480918D
:103F70000D028061E5CF8D3F31F480910B028160AD
:103F800080930B0208958E3F21F480910B02826092
:103F9000F7CF8F3FB9F780910B028460F1CF803F5C
:103FA000C1F480910F0287FD10920F0280910E02E2
:103FB00081110EC080910F0281110AC08091100200
:103FC000811106C080911102811102C010920C0271
:103FD0000895813F29F480910F0218162CF3E6CF43
:103FE00090910E02823F29F497FFE0CF10920E02CB
:103FF000DDCF833F19F41916CCF3D8CF893F39F4BC
:1040000080911002181694F610921002CFCF8A3FBA
:1040100029F48091100287FFC9CFF6CF8B3F39F486
:104020008091110287FFC2CF10921102BFCF8C3F47
:1040300029F4809111021816BCF3B8CF843F31F4F3
:1040400080910D028E7F80930D02B0CF853F21F4C9
:1040500080910D028D7FF7CF863F21F480910D0274
:104060008B7FF1CF873F21F480910D02877FEBCFCB
:10407000883F21F480910D028F7EE5CF8D3F31F492
:1040800080910B028E7F80930B0290CF8E3F21F4A4
:1040900080910B028D7FF7CF8F3F09F087CF809102
:1040A0000B028B7FF0CF8DE092E00E9457100E94B0
:1040B000131D90930A028093090208951F93CF93D2
:1040C000DF938091090290910A020E941F1DAC01AA
:1040D00090910C022091070130E0911106C02091CF
:1040E00008018AE0289F900111244217530780F0AD
:1040F00080910E02C0910F0210911002D091110216
:1041000081110AC0C11178C0111176C0D11174C0DB
:10411000DF91CF911F9108959F3F19F09F5F90937A
:104120000C02181624F40E94E41E80930E02809163
:104130000E0287FF05C00E94E41E819580930E0247
:104140001C1624F40E94E41E80930F0280910F023B
:1041500087FF05C00E94E41E819580930F02609145
:104160000E02662331F1C0910F02CC2311F1062E0D
:10417000000C770B880B990B0E94C22823E333E3D2
:1041800043E35FE30E9426290E948A2860930E027F
:104190006C2FCC0F770B880B990B0E94C22823E35E
:1041A00033E343E35FE30E9426290E948A28609359
:1041B0000F02111624F40E942E1F8093100280918A
:1041C000100287FF05C00E942E1F81958093100268
:1041D0001D1624F40E942E1F80931102809111025B
:1041E00087FF05C00E942E1F819580931102DF91E9
:1041F000CF911F910C9453209F3F09F08FCFA0CFF8
:1042000085E0EDE0F2E0DF011D928A95E9F710927A
:104210000C0210920B0208950E94641C811102C0CE
:104220000E943E1C0E948A1C80935A0280FF03C099
:1042300086950C943D0780E0FCCF80915A02982F20
:104240009695933030F49F5F990F8170892B8093FE
:104250005A0280915A02816080935A020E948E1CF9
:1042600080915A0286950C943D0780915A02982FAE
:104270009E7F79F0825080935A028E7F91E009F4FC
:1042800090E080915A0290FB80F980935A020E943C
:104290008E1C80915A0286950C943D0790915A028B
:1042A000892F8E7F90FF816080935A020E948E1C1E
:1042B00080915A0280FF03C086950C943D0780E0F0
:1042C000FCCF90915A02892F86958F5F8F779170DE
:1042D0008430B8F4880F892B80935A0280915A0257
:1042E0008E7F91E009F490E080915A0290FB80F972
:1042F00080935A020E948E1C80915A0286950C94DB
:104300003D0790935A02EACF90915A02292F2695A1
:104310008227880F9170982B90935A029E7F21E0FC
:1043200009F420E080915A0220FB80F980935A0220
:104330000E948E1C80915A0286950C943D078091B4
:1043400032020895CF93DF9300D01F92CDB7DEB72E
:104350009C0180915F02843019F593E099833B833F
:104360002A839093E9008FEF9091E800815095FDAA
:1043700006C095ED9A95F1F700008111F5CF809177
:10438000E80085FF0DC050E040E063E070E0CE0142
:1043900001960E94FF238091E8008E778093E800C9
:1043A0000F900F900F90DF91CF910895CF93DF93EF
:1043B00000D01F92CDB7DEB720915F02243031F5D7
:1043C00022E02983805891099B838A8383E080932C
:1043D000E9008FEF9091E800815095FD06C095EDC2
:1043E0009A95F1F700008111F5CF8091E80085FFE3
:1043F0000DC050E040E063E070E0CE0101960E9405
:10440000FF238091E8008E778093E8000F900F9053
:104410000F90DF91CF9108959C0180915F028430CD
:10442000F9F482E08093E9009FEF8091E8009150D9
:1044300085FD06C085ED8A95F1F700009111F5CF55
:104440008091E80085FF0CC050E040E065E070E03E
:10445000C9010E94FF238091E8008E778093E800D5
:104460000895CF93DF93EC0180915F028430F1F4E3
:10447000909113019923E9F09091580297FF19C088
:104480008093E9008FEF9091E800815095FD06C080
:1044900095E19A95F1F700008111F5CF8091E80040
:1044A00050E040E060E270E085FD1AC0DF91CF91FE
:1044B000089581E08093E9008FEF9091E8008150AA
:1044C00095FD06C095ED9A95F1F700008111F5CFA5
:1044D0008091E80085FFEACF50E040E068E070E0BE
:1044E000CE010E94FF238091E8008E778093E80040
:1044F00080E2FE01A2E1B2E001900D928A95E1F71F
:10450000D5CF80915E02811109C00E948F250E9443
:10451000EC258091E20084608093E200089510927F
:104520005E020895089508950C94D91C42E061EC50
:1045300081E00E940D2542E061EC82E00E940D25A1
:1045400042E061EC83E00E940D2542E261EC84E0F0
:104550000C940D2580916102833009F455C030F42C
:10456000813071F1823009F491C008958A3009F4E4
:104570007DC08B3009F463C0893009F044C080915C
:104580006002813209F03FC080916402909165021F
:10459000009711F00397B9F58091E800877F809329
:1045A000E8008091E80082FF2AC08091F1008093AA
:1045B00032028091E8008B778093E8000C944125CB
:1045C00080916002813AF9F48091E800877F8093BE
:1045D000E8008091640290916502892B61F460E2A9
:1045E00082E192E070E00E944E248091E8008B7797
:1045F0008093E800089560E090E080E0F3CF809140
:104600005F028111CECF089580916002813AD9F77F
:104610008091640290916502892BA9F78091E8004E
:10462000877F8093E8008091E80080FFFCCF809135
:1046300013018093F1008091E8008E77BDCF8091C7
:104640006002813201F78091640290916502892BAA
:10465000D1F68091E800877F8093E8000E94412591
:1046600080916202809313010C9440158091600246
:10467000813249F68091E800877F8093E8000E94AC
:1046800041258091630280933302089580916002F6
:10469000813A09F0B8CF8091E800877F8093E800E5
:1046A0008091E80080FFFCCF80913302C2CF84B7B5
:1046B000877F84BF0FB6F894A895809160008861C9
:1046C00080936000109260000FBE80E880936100CC
:1046D000109261000E948F100E948F250E94EC258D
:1046E0008091E20084608093E20078940E946E28BA
:1046F0000E94911089E091E00E943B1080915F023E
:10470000853029F00E949B100E940810F7CF0E946C
:10471000931C80915D02882389F30E94C41C882326
:1047200069F30E94E923EACF292F3327233031058B
:1047300079F158F421303105F1F02230310519F1C9
:1047400090E080E030E020E01AC02132310599F19C
:1047500022323105A9F7643098F770E0FB01EE0FC3
:10476000FF1FE85DFE4F208131816C5D7E4FFB01B4
:10477000808190E004C082E190E026E539E0FA0112
:104780003183208308958DE690E029EE38E0F7CF5D
:1047900099278130910561F028F0029789F6E9EBBD
:1047A000F8E002C0E5EEF8E0849190E09F01E7CFE9
:1047B000EDECF8E0F9CF643008F0C2CFE62FF0E07E
:1047C000EE0FFF1FE05DFE4F2081318189E090E018
:1047D000D6CF80E189BD82E189BD09B400FEFDCF5D
:1047E0008091D8008F7D8093D8008091E000826016
:1047F0008093E0008091E00081FDFCCF0895AF92AE
:10480000BF92CF92DF92FF920F931F93CF93DF93CC
:104810006C01EB018A010E946025F82E811123C0F2
:104820000115110539F0F80180819181C81BD90B60
:10483000C80ED91EB12CA12C2097A9F08091E800B8
:1048400085FD22C08091E8008E778093E8000115F5
:104850001105A1F0F80180819181A80EB91EB182E5
:10486000A08285E0F82E8F2DDF91CF911F910F91BF
:10487000FF90DF90CF90BF90AF9008950E94602589
:104880008823D1F2F82EEFCFF60181916F0180934A
:10489000F1002197FFEFAF1ABF0ACECFFC01809144
:1048A00066029091670286179707A0F0611571055F
:1048B00029F49091E8009E779093E80090E06115CC
:1048C000710551F4911108C08091E80082FF35C054
:1048D00080E00895BC01F2CF80915F028823C9F186
:1048E0008530C9F18091E80083FD31C08091E800F6
:1048F00082FDEACF8091E80080FFE1CF2091F300B4
:104900008091F200322F282F6115710519F028309F
:10491000310558F091E02830310509F090E0209100
:10492000E8002E772093E800CACF81918093F100B0
:10493000615071092F5F3F4FE7CF80915F0288235D
:1049400041F0853041F08091E80083FFBDCF81E0E8
:10495000089582E0089583E00895FC018091660245
:104960009091670286179707A0F06115710529F4E9
:104970008091E8008E778093E80090E061157105E2
:1049800051F4911108C08091E80082FF36C080E0A8
:104990000895BC01F2CF80915F028823D1F1853068
:1049A000D1F18091E80083FD32C08091E80082FD62
:1049B000EACF8091E80080FFE1CF2091F300809161
:1049C000F200322F282F6115710519F028303105BA
:1049D00058F091E02830310509F090E08091E8002E
:1049E0008E778093E800CACF84918093F10031964E
:1049F000615071092F5F3F4FE6CF80915F0288239E
:104A000041F0853041F08091E80083FFBCCF81E028
:104A1000089582E0089583E00895982F973028F054
:104A20008F708093E90081E008959093E900242F2E
:104A3000762F50E0981731F07091EC002091ED0046
:104A40005091F00021FD02C09F5FE8CF3091EB0054
:104A50003E7F3093EB003091ED003D7F3093ED00D1
:104A60003091EB0031603093EB007093EC002093B9
:104A7000ED005093F0002091EE0027FDE5CF80E09F
:104A800008958091600287FF13C08091E80082FF43
:104A900006C08091E8008B778093E80004C0809185
:104AA0005F028111F2CF089580915F028823D9F3CC
:104AB0008091E80080FFF8CF8091E8008E77ECCFFE
:104AC0002091E4003091E50085E69091EC0090FFA4
:104AD00006C09091E80090FF06C080E00895909194
:104AE000E80092FDFACF90915F02992391F0953002
:104AF00091F09091EB0095FD10C04091E400509131
:104B0000E5002417350709F381509A01F1F684E096
:104B1000089582E0089583E0089581E008950E9459
:104B2000FD250E940526E0EEF0E080818160808313
:104B3000E8EDF0E080818F77808319BCA7EDB0E0CD
:104B40008C918E7F8C9380818F7E808310925E0209
:104B500008950F931F93CF93DF930E94FD250E942A
:104B60000526C8EDD0E088818F77888388818068AA
:104B7000888388818F7D888319BC10925F02109290
:104B80005B0210925D0210925C0200EE10E0F801F0
:104B900080818B7F808388818160888342E060E0B0
:104BA00080E00E940D25E1EEF0E080818E7F808321
:104BB000E2EEF0E080818160808380818860808384
:104BC000F80180818E7F8083888180618883DF9176
:104BD000CF911F910F910895E8EDF0E080818F7ED5
:104BE0008083E7EDF0E080818160808384E082BF94
:104BF00081E080935E020C94A925E8EDF0E08081CD
:104C00008E7F80831092E20008951092DA00109255
:104C1000E10008951F920F920FB60F9211242F9367
:104C20003F934F935F936F937F938F939F93AF9334
:104C3000BF93EF93FF938091E10082FF0BC08091BF
:104C4000E20082FF07C08091E1008B7F8093E1004A
:104C50000E946D288091DA0080FF19C08091D800F1
:104C600080FF15C08091DA008E7F8093DA008091FA
:104C7000D90080FF94C080E189BD82E189BD09B47B
:104C800000FEFDCF81E080935F020E94812280912F
:104C9000E10080FF19C08091E20080FF15C0809183
:104CA000E2008E7F8093E2008091E2008061809339
:104CB000E2008091D80080628093D80019BC85E022
:104CC00080935F020E9493228091E10084FF29C0BB
:104CD0008091E20084FF25C080E189BD82E189BD29
:104CE00009B400FEFDCF8091D8008F7D8093D8005D
:104CF0008091E1008F7E8093E1008091E2008F7EC1
:104D00008093E2008091E20081608093E2008091D4
:104D10005B02882309F449C084E080935F020E940B
:104D200094228091E10083FF29C08091E20083FFFB
:104D300025C08091E100877F8093E10082E080932D
:104D40005F0210925B028091E1008E7F8093E10010
:104D50008091E2008E7F8093E2008091E20080618A
:104D60008093E20042E060E080E00E940D258091A7
:104D7000F00088608093F0000E949222FF91EF91F2
:104D8000BF91AF919F918F917F916F915F914F9163
:104D90003F912F910F900FBE0F901F90189519BC47
:104DA00010925F020E948F2272CF8091E30087FDF4
:104DB00002C081E0B2CF83E0B0CF1F920F920FB656
:104DC0000F9211242F933F934F935F936F937F9391
:104DD0008F939F93AF93BF93CF93EF93FF93C09124
:104DE000E900CF708091EC001092E9008091F00012
:104DF000877F8093F00078940E9419271092E90031
:104E00008091F00088608093F000C093E900FF91EA
:104E1000EF91CF91BF91AF919F918F917F916F91C2
:104E20005F914F913F912F910F900FBE0F901F9068
:104E300018951F93CF93DF93CDB7DEB7AA970FB620
:104E4000F894DEBF0FBECDBFE0E6F2E08091F10046
:104E5000819322E0E836F207C9F70E94AA228091E6
:104E6000E80083FF42C080916002909161029A3015
:104E700008F03BC0E92FF0E0E05CF84D0C94E3292A
:104E80004A276E2775276E277527C927EB277527B1
:104E900040284D28803879F0823839F580916402B5
:104EA0008F708093E9008091EB0085FB882780F963
:104EB0001092E90006C080915C0290915D02911110
:104EC00082609091E800977F9093E8008093F100D2
:104ED0001092F1008091E8008E772DC0282F2D7F51
:104EE00021F48823D1F0823059F18091E80083FFCA
:104EF0000AC08091E800877F8093E8008091EB00F2
:104F000080628093EB00AA960FB6F894DEBF0FBEC6
:104F1000CDBFDF91CF911F910895809162028130C2
:104F200021F7933009F080E080935D021092E90050
:104F30008091E800877F8093E8000E944125D5CFCB
:104F4000809162028111F2CF809164028F7069F2C8
:104F50008093E9002091EB0020FFE8CF933031F4FB
:104F60008091EB0080628093EB00E0CF9091EB00AA
:104F700090619093EB0021E030E001C0220F8A9510
:104F8000EAF72093EA001092EA008091EB00886033
:104F9000EACF8111AACF109162021F778091E300BE
:104FA0008078812B8093E3008091E800877F809355
:104FB000E8000E9441258091E80080FFFCCF8091AD
:104FC000E30080688093E30083E0111101C082E078
:104FD00080935F028ACF8058823008F086CF80911C
:104FE0006202909163028C3D23E09207A1F583E079
:104FF0008A838AE289834FB7F894DE01139620E012
:105000003EE051E2E32FF0E050935700E49120FF9F
:1050100003C0E295EF703F5FEF708E2F90E0EA30B3
:10502000C0F0C7968D939D932F5F243159F74FBFE2
:105030008091E800877F8093E8006AE270E0CE010B
:1050400001960E944E248091E8008B778093E800BF
:105050004CCFC096E7CFAE014F5F5F4F60916402C7
:105060000E949423BC01892B09F43FCF9091E80062
:10507000977F9093E80089819A810E94AD24E3CFC5
:10508000803809F032CF8091E800877F8093E80074
:1050900080915B028093F1001DCF811126CF90910A
:1050A0006202923008F021CF8091E800877F8093E0
:1050B000E80090935B020E94412580915B02882367
:1050C00031F084E080935F020E9496220ECF80919F
:1050D000E30087FDF6CF81E0F5CF0895CF9380916F
:1050E0005F02882399F0C091E900CF708091EC00B5
:1050F00080FD0EC080E0C82B1092E9008091E8008E
:1051000083FD0E941927CF70C093E900CF910895C5
:1051100080E8F1CF0E9491286894B1110C94202965
:1051200008950E94052988F09F5798F0B92F992774
:10513000B751B0F0E1F0660F771F881F991F1AF082
:10514000BA95C9F714C0B13091F00E941F29B1E09F
:1051500008950C941F29672F782F8827B85F39F09E
:10516000B93FCCF3869577956795B395D9F73EF41B
:1051700090958095709561957F4F8F4F9F4F0895C3
:10518000E89409C097FB3EF49095809570956195E1
:105190007F4F8F4F9F4F9923A9F0F92F96E9BB2797
:1051A0009395F695879577956795B795F111F8CF13
:1051B000FAF4BB0F11F460FF1BC06F5F7F4F8F4F7E
:1051C0009F4F16C0882311F096E911C0772321F074
:1051D0009EE8872F762F05C0662371F096E8862F0C
:1051E00070E060E02AF09A95660F771F881FDAF763
:1051F000880F9695879597F9089557FD9058440F15
:10520000551F59F05F3F71F04795880F97FB991F25
:1052100061F09F3F79F087950895121613061406E2
:10522000551FF2CF4695F1DF08C01616170618066F
:10523000991FF1CF86957105610508940895E8944A
:10524000BB2766277727CB0197F908950E94392954
:105250000C94AA290E949C2938F00E94A32920F0CE
:10526000952311F00C9493290C94992911240C94F2
:1052700020290E94FD2870F3959FC1F3950F50E0FF
:10528000551F629FF001729FBB27F00DB11D639FF8
:10529000AA27F00DB11DAA1F649F6627B00DA11D9E
:1052A000661F829F2227B00DA11D621F739FB00D44
:1052B000A11D621F839FA00D611D221F749F3327B4
:1052C000A00D611D231F849F600D211D822F762F4D
:1052D0006A2F11249F5750409AF0F1F088234AF02A
:1052E000EE0FFF1FBB1F661F771F881F9150504096
:1052F000A9F79E3F510580F00C9493290C94202926
:105300005F3FE4F3983ED4F3869577956795B7951C
:10531000F795E7959F5FC1F7FE2B880F911D969536
:10532000879597F9089597F99F6780E870E060E0A6
:1053300008959FEF80EC089500240A94161617062E
:1053400018060906089500240A9412161306140676
:1053500005060895092E0394000C11F4882352F0D9
:10536000BB0F40F4BF2B11F460FF04C06F5F7F4F91
:105370008F4F9F4F0895AA1BBB1B51E107C0AA1F67
:10538000BB1FA617B70710F0A61BB70B881F991FE6
:105390005A95A9F780959095BC01CD01089597FB8A
:1053A000072E16F4009407D077FD09D00E94BB2980
:1053B00007FC05D03EF4909581959F4F0895709518
:1053C00061957F4F0895EE0FFF1F0590F491E02D3A
:1053D0000994F999FECF92BD81BDF89A992780B5BD
:1053E0000895A6E1B0E044E050E00C94232AA8E13F
:1053F000B0E042E050E00C94232A262FF999FECF2A
:1054000092BD81BDF89A019700B4021639F01FBA17
:1054100020BD0FB6F894FA9AF99A0FBE0895039634
:10542000272F0E94FE290E94FD29252F0E94FE2978
:10543000242F0C94FE290196272F0E94FE290C94FC
:10544000FD29DC01CB01FC01F999FECF06C0F2BDBC
:10545000E1BDF89A319600B40D9241505040B8F732
:065460000895F894FFCF4F
:10546600FFE4012808140A321E9F2131220C22D69D
:1054760021A22101F4F5F6F731333236946697C648
:1054860093929190404D3639240AD709A1096809AB
:08549600FB0814092D09460969
:00000001FF
