:100000000C944C020C9493020C9493020C94930263
:100010000C9493020C9493020C9493020C9493020C
:100020000C9493020C9493020C944B1D0C941E1E82
:100030000C942B140C9493020C9493020C94930242
:100040000C9493020C9493020C9493020C949302DC
:100050000C9493020C9493140C9493020C949302BA
:100060000C9493020C9493020C9493020C949302BC
:100070000C9493020C9493020C9493020C949302AC
:100080000C9493020C9493020C9493020C9493029C
:100090000C9493020C9493020C9493020C9493028C
:1000A0000C9493020C9493020C94930204000500A8
:1000B00006000700080009000A000B000C000D00F4
:1000C0000E000F001000110012003070317000009F
:1000D0000100010001000100010001000100010018
:1000E0000100010001000100010001000100010008
:1000F00001000000010001000100010001000100F9
:1001000001000100010001000100010001000100E7
:1001100001000100010000000100010001000100D8
:1001200001000100010001000100010001000100C7
:1001300001000100010001000100000001000100B8
:1001400001000100010001000100010001000100A7
:100150000100010001000100010001000100000098
:100160000100010001000100010001000100010087
:100170000100010001000100010001000100010077
:100180000100000001000100010001000100010068
:100190000100010001000100010001000100010057
:1001A0000100010001000000010001000100010048
:1001B0000100010001000100010001000100010037
:1001C0000100010001000100010000000100010028
:1001D0000100010001000100010001000100010017
:1001E0000100010001000100010001000100000008
:1001F00001000100010001000100010001000100F7
:1002000001000100010001000100010001000100E6
:1002100001000000010001000100010001000100D7
:1002200001000100010001000100010001000100C6
:1002300001000100010000000100010001000100B7
:1002400001000100010001000100010001000100A6
:100250000100010001000100010000000100010097
:100260000100010001000100010001000100010086
:100270000100010001000100010001000100000077
:100280000100010001000100010001000100010066
:100290000100010001000100010001000100010056
:1002A0000100000001000100010001000100010047
:1002B0000100010001000100010001000100010036
:1002C0000100010001000000010001000100010027
:1002D0000100010001000100010001000100010016
:1002E00001000100010001000100000012036B0089
:1002F0006500790062006F00610072006400000018
:10030000160371006D006B006200750069006C00DF
:1003100064006500720000000403090409026D0016
:10032000040100A0FA0904000001030101000921F1
:10033000110100012240000705810308000A090499
:1003400001000103010200092111010001224D00F9
:100350000705820308000A090402000103000000E7
:100360000921110100012236000705830308000A54
:10037000090403000103000000092111010001220A
:10038000390007058403200001120110010000005C
:1003900008EDFE606001000102000105010906A1EF
:1003A00001050719E029E715002501950875018168
:1003B0000205081901290595057501910295017538
:1003C0000391010507190029F71500250195F87516
:1003D000018102C005010980A101850216010026E4
:1003E00003001A81002A8300751095018100C00561
:1003F0000C0901A1018503160100269C021A0100C7
:100400002A9C02751095018100C005010902A10115
:100410000901A10005091901290515002501950506
:1004200075018102950175038101050109300931CA
:100430001581257F95027508810609381581257F6C
:10044000950175088106050C0A38021581257F95EE
:100450000175088106C0C005010906A1010507193B
:10046000E029E715002501950875018102950175C0
:100470000881010508190129059505750191029565
:1004800001750391010507190029FF150026FF00DA
:10049000950675088100C00011241FBECFEFDAE079
:1004A000DEBFCDBF04B603FE27C080911402909139
:1004B0001502A0911602B09117028730904BA74009
:1004C000B04BD1F410921402109215021092160241
:1004D0001092170214BE84B7877F84BF0FB6F894BA
:1004E000A895809160008861809360001092600000
:1004F0000FBEE0E0F8E3099511E0A0E0B1E0E4EC24
:10050000F2E402C005900D92A033B107D9F722E0C2
:10051000A0E3B1E001C01D92A431B207E1F70E944F
:100520009A1A0C9460210C94000090E080E00895E9
:100530000895089581E00895089581E008950C9448
:100540009A020E94920C2FEF84E39CE0215080409D
:100550009040E1F700C000000C94B814FF920F9394
:100560001F93CF93DF938C01FC01C081D1818091D7
:100570005E0181113FC082818823B9F1CE010E94C2
:10058000F911F82E682FCE010E949F11BE018F2D08
:100590000E943304EC01B8010E949F02882309F4F1
:1005A0004AC0B801CE010E946306882309F443C003
:1005B000C531F0E7DF0718F5C23080E7D80708F04B
:1005C0004BC0C115E0E7DE0789F1C130D047D1F15A
:1005D00081E08093320180933301C801DF91CF9194
:1005E0001F910F91FF900C949D02CE010E94CE119D
:1005F000F82ECCCFCE010E94F911BE01C9CFCC3369
:1006000080E7D80709F4ACC0CD33D04709F7F8012B
:100610008281882309F4CBC0109233010E945D14BB
:10062000909331018093300180E2A7C0F80182816C
:1006300081110E94A10280E0DF91CF911F910F9163
:10064000FF900895F80182818823A9F38091D30156
:1006500081608093D301EFCFF8018281882309F470
:10066000BCCF0E94AF13811102C00E9490130E9460
:10067000CC1390E09093050280930402FE01E350B6
:10068000F047809104028160E231F105C8F4E55B36
:10069000FC4F0C9410215D0369036D037103750316
:1006A00079037D038103850389038D0391039503FA
:1006B00099039D03A103A503A9038091040282600D
:1006C00080930402809104020E94D0130E94920C35
:1006D000B2CF809104028460F3CF809104028860DD
:1006E000EFCF809104028061EBCF809104028062A1
:1006F000E7CF809104028064E3CF80910402806898
:10070000DFCF809104028460EACF809104028E7F63
:10071000D7CF809104028D7FD3CF809104028B7F4D
:10072000CFCF80910402877FCBCF809104028F7E50
:10073000C7CF809104028F7DC3CF809104028F7B4D
:10074000BFCF809104028F77BBCF809104028B7F53
:10075000EACF90910402892F97FB87F98058B0CF98
:10076000F8018281882361F0109232010E945D14A9
:10077000909331018093300182E00E94FC095BCFAD
:100780008091320181110FC080913001909131012F
:100790000E946914883C910530F486E20E94D108D9
:1007A00086E20E94AD0982E00E94030A44CF809154
:1007B000330181110FC080913001909131010E946D
:1007C0006914883C910530F487E20E94D10887E2E1
:1007D0000E94AD0980E2E8CF0C94B406259A2D98CA
:1007E0008FEF9FEF909387008093860082E880933D
:1007F000800089E1809381000C944F180E94EE03E1
:100800000C94B206282F2D9880918000211108C0E9
:100810008F7780938000109289001092880008954D
:10082000806880938000233039F48FEF9FEF90939E
:10083000890080938800089583E090E0821B9109ED
:10084000880F991F2FEF3FEF02C0369527958A95A5
:10085000E2F7309389002093880008950C949C025D
:100860000C942E040895972F70E023E0929F600D62
:10087000711D1124FB0192E1899FE00DF11D1124EE
:10088000EE0FFF1FE455FF4F859194910895FC01F1
:10089000EE0FFF1FE451FD4F8591949108950E9442
:1008A00033040E94E205811520E5920708F040C05C
:1008B000811530E4930708F0FAC0883E910518F5D9
:1008C000803E910508F07DC1883A910580F4853A13
:1008D000910508F087C08130910509F472C120F0BC
:1008E0008430910508F06DC190E080E008958D3B63
:1008F000910508F482C0803C9105B0F3805C9109B9
:100900000E9447040895811540E2940750F4811530
:1009100021E0920708F055C1803F910528F39065CA
:100920000895811530E3930708F0BEC09F70E8CFAB
:10093000811545E5940760F5811524E5920708F0D7
:10094000E5C0811532E5930750F4811541E5940720
:1009500008F4B0C0982F8827816F906A0895282FD7
:1009600026952695AC01437055278115934508F0CF
:10097000BEC081E090E002C0880F991F4A95E2F75F
:1009800040E2249F90011124822B932B9C680895B0
:10099000803340E7940798F4803220E7920708F00C
:1009A000BFC0811536E5930708F4B5C09C013056E9
:1009B0009F702115304108F097CF906208958133E0
:1009C00020E7920709F4B3C008F4AEC0823340E7D1
:1009D000940709F4AFC08333904709F085CF80E0D6
:1009E00093ED0895853A910509F4A7C0863A9105DB
:1009F00009F0A6C082E890E40895883A910509F4C8
:100A0000A2C0893A910509F4A1C08A3A910509F476
:100A1000A0C08B3A910509F49FC08C3A910509F466
:100A20009EC08B3B910509F49DC08C3B910509F458
:100A30009CC08D3A910509F49BC0803B910509F457
:100A40009AC08E3A910509F499C08F3A910509F43C
:100A500098C0813B910509F497C0823B910509F448
:100A600096C0833B910509F495C0843B910509F438
:100A700094C0853B910509F493C0863B910509F428
:100A800092C0873B910509F491C0883B910509F418
:100A900090C0893B910509F48FC08A3B910509F408
:100AA0008EC080E094E408959927906C08959F701B
:100AB000906A08959C0154E0369527955A95E1F780
:100AC000922F9370482F437021E030E002C0220F34
:100AD000331F4A95E2F73C68392B869586958370DB
:100AE00040E2849FC0011124822B932B089581E062
:100AF00090E002C0880F991F4A95E2F740E2249FD8
:100B000090011124822B932B9A680895982F88279F
:100B1000846F906A0895982F882788279F714DCFFA
:100B200080529047946D089580E091ED089580E0A3
:100B300090ED089580E092ED089581E890E40895A5
:100B400083E890E4089582EE94E4089589EE94E4B5
:100B500008958AEE94E4089585EB94E4089586EB75
:100B600094E4089583EB94E4089584EB94E4089569
:100B700087EB94E408958CEC94E408958DEC94E470
:100B8000089583E895E408958AE895E4089582E954
:100B900095E4089584E995E4089581E296E4089542
:100BA00083E296E4089584E296E4089585E296E46B
:100BB000089586E296E4089587E296E408958AE22D
:100BC00096E408958238910549F1B0F48133910596
:100BD00009F45CC048F48932910509F452C08A32A4
:100BE000910509F458C008958533910509F444C06E
:100BF0008933910599F00895833E910531F138F4D8
:100C0000803E910591F0823E9105B1F00895863EB7
:100C1000910511F1873E910541F10895209104025B
:100C20002370C9F080EE90E008952091040220FF27
:100C300012C089E390E008952091040222FF0BC0C6
:100C400024FF2EC090E080E008952091040222FD50
:100C50002AC024FDF7CF08952091040223FFFBCF83
:100C600024FDF0CF87EE90E008952091040223FF49
:100C7000F0CF86EE90E008952091040225FD16C085
:100C800008952091040225FD14C0089520910402C6
:100C900026FD12C008952091040226FD10C008957B
:100CA00083EE90E0089582EE90E0089589E290E06E
:100CB000089585E390E008958AE290E0089581E345
:100CC00090E0C9CF08950F931F93CF938C01FB0140
:100CD0008281811106C0C1E08C2FCF911F910F91AD
:100CE0000895C0914101C11125C00531104799F700
:100CF0000E94620681E0809341010E945D149093FE
:100D0000400180933F0110923401109236011092FD
:100D10003501109238011092370110923A01109269
:100D2000390110923C0110923B0110923E01109249
:100D30003D01D2CF80913F01909140010E94691402
:100D4000883C910540F680913401E82FF0E0EE0FE9
:100D5000FF1FEB5CFE4F118300838F5F8093340194
:100D6000C0E0BACF0C9498020C94990285B78068C1
:100D700085BF85B7806885BFA6E1B1E061E070E01E
:100D80008D91E82FE295EF70F0E041A18F709B010B
:100D900001C0220F8A95EAF7922F9095942391A390
:100DA00082A1822B82A381E0AC31B80749F7A3E18D
:100DB000B1E061E070E08D91E82FE295EF70F0E036
:100DC00041A18F709B0101C0220F8A95EAF7922FF3
:100DD0009095942391A382A1822B82A381E0A631D6
:100DE000B80749F7E8E4F1E0A2E4B1E08EE491E06D
:100DF00011921D928E179F07D9F70C94FE036F92E4
:100E00007F928F929F92AF92BF92CF92DF92EF929A
:100E1000FF920F931F93CF93DF9302E411E096E1CB
:100E2000E92E91E0F92EE801CC24C394D12CBB2407
:100E3000B394A8801882D7018D917D01E82FE295A7
:100E4000EF70F0E091A18F70A60101C0440F8A9568
:100E5000EAF7892F842B81A382A1842E8094882194
:100E600082A3B0EABA95F1F783E1682E81E0782E8B
:100E700090E080E0D3013D913D01632F62956F705A
:100E800070E0DB0190962C9198803F70B60101C014
:100E9000660F3A95EAF7622320E031F42C2D082EF4
:100EA00001C0220F0A94EAF729292883019683308A
:100EB000910501F781A1882181A382A1482B42A33A
:100EC0008881A81641F0B0924E010E945D14909363
:100ED000500180934F012196BCE1EB16B1E0FB0677
:100EE00009F0A7CF80914E018823A9F080914F018E
:100EF000909150010E946914069768F0E8E4F1E0CF
:100F000088E491E0D8012D918D0121938A179B07E8
:100F1000C9F710924E010E94EC0381E0DF91CF915E
:100F20001F910F91FF90EF90DF90CF90BF90AF9007
:100F30009F908F907F906F900895E82FF0E0E85B8E
:100F4000FE4F808108950895909356018093550136
:100F50000895E0915501F0915601309721F00190EC
:100F6000F081E02D099480E00895E0915501F09121
:100F70005601309721F00280F381E02D0994089505
:100F8000E0915501F0915601309721F00480F581F0
:100F9000E02D0994089520915301309154012817B0
:100FA000390771F09093540180935301E0915501FA
:100FB000F0915601309721F00680F781E02D0994D9
:100FC000089520915101309152012817390771F08D
:100FD0009093520180935101E0915501F091560197
:100FE000309721F00084F185E02D0994089508954B
:100FF0000C94F7070E9454140E94B6060E941D1517
:101000000C944F18BF92CF92DF92EF92FF920F9302
:101010001F93CF93DF93CDB7DEB72A970FB6F8941F
:10102000DEBF0FBECDBF0E94FF0688E5C82E81E05F
:10103000D82E10E000E0B02E802F0E949D07E82EF1
:10104000F601F1906F01F81609F45AC08091D301AE
:1010500081FD0E94A30790E080E0FE242F2D30E068
:10106000482FB901082E02C0759567950A94E2F7DA
:1010700060FF41C08E83BF8281E090E06C0102C0BE
:10108000CC0CDD1C4A95E2F72E2D30E02C213D21C1
:10109000232B09F480E088870E945D148160782FFB
:1010A0009A8789874E815F8168858A850E94A70813
:1010B000F801E85AFE4F80818C2580830E94A11799
:1010C0000E94A90790915701891789F10E94A907E9
:1010D000809357012A960FB6F894DEBF0FBECDBF9E
:1010E000DF91CF911F910F91FF90EF90DF90CF9004
:1010F000BF900C94300401968330910509F0B0CF75
:101100000F5F1F4F0630110509F095CF8FEF8983D0
:101110008A831B820E945D148160782F9D838C835B
:1011200049815A816B818D810E94A708C7CF2A9679
:101130000FB6F894DEBF0FBECDBFDF91CF911F91E8
:101140000F91FF90EF90DF90CF90BF900895CF93D5
:10115000DF93CDB7DEB72B970FB6F894DEBF0FBE87
:10116000CDBF4F83588769877A878B871E821D8200
:1011700085E0FE013796DE01119601900D928A9569
:10118000E1F749815A816B817C818D819E812B960B
:101190000FB6F894DEBF0FBECDBFDF91CF910C9498
:1011A000440F882309F4D8C0823871F40E94A9073B
:1011B00081FDD2C089E30E9499120E94611389E3E4
:1011C0000E94D6120C946113833859F40E94A90727
:1011D00080FDC2C083E50E9499120E94611383E5DD
:1011E000EFCF843859F40E94A90782FDB5C087E487
:1011F0000E9499120E94611387E4E2CF9CEF980F3E
:10120000913A18F40E949912DDCF90E2980F98302D
:1012100050F4877091E001C0990F8A95EAF7892F01
:101220000E941813CFCF9BE5980F933070F4853A46
:1012300031F0863A39F083E890E00C94CB0781E8EE
:1012400090E0FBCF82E890E0F8CF98E5980F9531D9
:1012500008F082C0883A09F440C0893A09F440C0D5
:101260008A3A09F440C08B3A09F440C08C3A09F438
:1012700040C08B3B09F440C08C3B09F440C08D3A20
:1012800009F440C0803B09F440C08E3A09F440C0E4
:101290008F3A09F440C0813B09F440C0823B09F415
:1012A00040C0833B09F440C0843B09F440C0853B07
:1012B00009F440C0863B09F440C0873B09F440C0B4
:1012C000883B09F440C0893B09F440C08A3B09F4DB
:1012D00040C090E080E00C94E10782EE90E0FBCF0C
:1012E00089EE90E0F8CF8AEE90E0F5CF85EB90E0C4
:1012F000F2CF86EB90E0EFCF83EB90E0ECCF84EB86
:1013000090E0E9CF87EB90E0E6CF8CEC90E0E3CF84
:101310008DEC90E0E0CF83E891E0DDCF8AE891E0CA
:10132000DACF82E991E0D7CF84E991E0D4CF81E2AE
:1013300092E0D1CF83E292E0CECF84E292E0CBCFB5
:1013400085E292E0C8CF86E292E0C5CF87E292E0E4
:10135000C2CF8AE292E0BFCF0895882309F44BC040
:10136000823871F40E94A90781FF45C089E30E9479
:1013700099120E94611389E30E94D6120C946113A2
:10138000833859F40E94A90780FF35C083E50E9485
:1013900099120E94611383E5EFCF843859F40E94BB
:1013A000A90782FF28C087E40E9499120E94611356
:1013B00087E4E2CF9CEF980F913AF0F290E2980F19
:1013C000983050F4877091E001C0990F8A95EAF740
:1013D000892F0E941E13D2CF9BE5980F933020F4E3
:1013E00090E080E00C94CB07885A853120F490E09F
:1013F00080E00C94E1070895882321F00E941813DF
:101400000C9461130895882321F00E941E130C94FC
:10141000611308958F929F92AF92BF92DF92EF92E5
:10142000FF920F931F93CF93DF937C01D62FC72F8B
:10143000FC01058102950F70128111110E94371372
:101440000E949212D82E882371F0112321F180E29C
:101450008D0F883000F182E00E947C120E9492126F
:1014600091E0D82ED926EC2FE295EF70F0E0E55C04
:10147000F54F0C9410214D0A4D0A9D0A9D0ADF0A72
:10148000FB0A7A0A7A0A060B7A0A9E0B9E0B110C4B
:101490001A0C7A0A3A0CD12CE6CF0C2F0F70C07FB1
:1014A00011F00295007F1123A9F0002359F080E28A
:1014B0008D0F883010F0D11109C0802F0E941813B1
:1014C0000E9461138D2F0E94D10814C0802F0E94AA
:1014D0002913F6CF8D2F0E94AD09002359F080E229
:1014E0008D0F883010F0D11124C0802F0E941E1360
:1014F0000E946113DD2009F4C4C10E946F1280FDB7
:10150000C0C1F70112820E9469120E94E310C70154
:101510000E944D0C0E946912DF91CF911F910F9193
:10152000FF90EF90DF90BF90AF909F908F900C94C2
:101530000411802F0E942F13DBCFFC2FFF70BF2ED2
:10154000C07FC03219F0B29480EFB822DD2369F079
:10155000D13029F1112369F1002359F0F701858178
:1015600080FFB0CF8F70858304C0112361F001111B
:1015700004C08B2D0E94FC09BDCF8B2D0130D1F70B
:101580000E944B13B7CF011106C00E944E138B2D42
:101590000E94030AAFCF013009F4ACCFF6CF11237C
:1015A00021F0063008F0A6CFE4CF053008F0A2CF36
:1015B000EECF002361F38D2F0E94AD099BCF8C2FBE
:1015C00086958695837069F0813009F093CF8D2FD1
:1015D0009C2F9370111102C090E080E00E94E107FF
:1015E00089CF8D2F9C2F9370111102C090E080E065
:1015F0000E94CB077FCF8D2F112329F00E94AA16BE
:101600000E94961777CF0E941217FACF8C2F837003
:1016100009F047C011116ECF2D2F22952695277006
:10162000220F220F6D2F6F70862E912CB12CA12CC2
:10163000022E04C0880C991CAA1CBB1C0A94D2F769
:1016400060E070E0CB01D4FF0FC06FE070E080E09D
:1016500090E004C0660F771F881F991F2A95D2F764
:101660006095709580959095C695C695C370C2306B
:1016700051F080F4682979298A299B29C13071F0B9
:101680000E948C1037CF682979298A299B290E94CA
:10169000A81030CF0E948C10C501B4010E947010B8
:1016A00029CF8695112311F08C2F8170882309F49E
:1016B00021CF2D2F229526952770220F220F6D2FD7
:1016C0006F70862E912CB12CA12C022E04C0880C98
:1016D000991CAA1CBB1C0A94D2F760E070E0CB01F5
:1016E000D4FF0FC06FE070E080E090E004C0660FB0
:1016F000771F881F991F2A95D2F76095709580955E
:101700009095C695C695C370C23051F080F4682993
:1017100079298A299B29C13071F00E946611EACE8D
:10172000682979298A299B290E948211E3CE0E9487
:101730006611C501B4010E944A11DCCEE0E2ED0F52
:10174000E53108F062C0F0E0E855F44F0C94102148
:10175000BD0BBD0BBD0BBD0BBD0BBD0BBD0BBD0B49
:10176000BD0BBD0BBD0BBD0BBD0BBD0BBD0BBD0B39
:10177000CA0BD80BDF0BE60BF00BDF708C2F8F71D1
:10178000112321F00E94E3108D2FF4CE0E9404114A
:101790008D2FFECE112341F0053008F0ABCE8C2FFB
:1017A0008F710E942911A6CE063008F0A3CEF7CF84
:1017B0008C2F8F71112339F00E94E3109BCE8C2F58
:1017C0008F711123C9F30E94041194CE112329F0C3
:1017D0008C2F8F710E94CE108DCE0E94C4108ACEA5
:1017E000112349F0CF718C2F0E94E31063E08C2FFE
:1017F0000E9473127FCE81E00E947C12023008F4B6
:1018000079CE82E00E947C1275CE112329F001115D
:1018100059CE8C2F8F71D0CF0111CDCE8C2F8F71DF
:10182000D2CF4C2F4F706D2FC7010E9495020E949E
:10183000ED0F60CE11115ECECF70C230A9F040F432
:10184000CC2379F0C13009F055CE0E94781852CEE1
:10185000C33069F0C43009F04DCE8D2F0E94C718F7
:1018600049CE0E94601846CE0E94911843CE0E9435
:10187000A41840CE4C2F4F706D2FC7010E94320428
:1018800039CEDF91CF911F910F91FF90EF90DF90B4
:10189000BF90AF909F908F9008950F931F93CF9319
:1018A000DF93EC01988189812B813C81232B39F0D6
:1018B0008F3F19F481E09F3F19F080E001C081E083
:1018C00080FD17C0CE010E94AE02882391F068818E
:1018D00079818A810E9445128C010E949E110E948A
:1018E0006510B801CE01DF91CF911F910F910C943B
:1018F0000A0ADF91CF911F910F9108950E9437132B
:101900000E9448130E940A130E9461130E94431808
:101910000E94961790E080E00E94CB0790E080E064
:101920000C94E1070E9426130C947E0C0E943B123B
:10193000E92FE295EF70E250EE30E0F4F0E0ED5583
:10194000F34F0C941021B10CB10CBA0CBA0CBC0CB6
:10195000BA0CBA0CBA0CB10CB10CC10CBA0CBA0C62
:10196000C10C803F19F020F4803E20F481E00895FE
:10197000843FE1F380E00895803EC0F3813FD1F7DA
:10198000F5CF93FB882780F90895CF93DF9300D09C
:1019900000D01F92CDB7DEB70F900F900F900F9031
:1019A0000F90DF91CF910895CF93DF9300D000D0B7
:1019B00000D0CDB7DEB726960FB6F894DEBF0FBEC7
:1019C000CDBFDF91CF9108951F93CF93DF93C09147
:1019D0005F0116E0809160018C1304C0DF91CF910C
:1019E0001F910895D0E01C9FF0011D9FF00D112460
:1019F000EF59FE4F408151816281738184819581CD
:101A00000E94D40C2196C770E5CF4091910150916E
:101A10009201609193017091940180919501909150
:101A200096010C94D40C1F93CF93DF938091960171
:101A3000807FD1F4809193018823B1F080915F0180
:101A4000D0916001B0919101C091920140919401B7
:101A500050919501A1E0BF3F09F0A0E0BA01609567
:101A6000709516E0D81304C0DF91CF911F910895AF
:101A700021E04115510521F02A2FCF3F09F020E048
:101A800090E020FD38C0189FF001199FF00D11243F
:101A9000EF59FE4F21812C132EC020812B132BC018
:101AA0002281211128C0238134812417350700F1B8
:101AB000241B350B283C3105F0F4209196012F7042
:101AC00020612093960126E0289FF001299FF00DC8
:101AD0001124EA59FE4F80818F708061808381E9F3
:101AE00091E00E944D0CDF91CF911F910C94E40C7A
:101AF000260F371FDFCF01968770B4CFAF92BF920A
:101B0000CF92DF92EF92FF920F931F93CF93DF93C9
:101B1000CDB7DEB761970FB6F894DEBF0FBECDBF6D
:101B20008C0185E0F801DE011D9601900D928A95E9
:101B3000E1F7D8014C9111965C9111971296EC90B7
:101B40003091910160919201809194019091950161
:101B500021E0009731F06F3F19F421E03F3F09F099
:101B600020E0B22FB170BB2E20FD80C1F801C380F0
:101B7000D480A0909301AA2009F427C1C816D906E1
:101B8000D0F1D601A81BB90BCD01FF24F394883CFA
:101B9000910508F0F12C80919601982F907FFF20FD
:101BA00009F4CAC0911187C0FE2C651329C03413F3
:101BB00027C0E11025C08F708061809396010E943C
:101BC000050D81E991E00E944D0C80919601F8018C
:101BD00085838F2D61960FB6F894DEBF0FBECDBF03
:101BE000DF91CF911F910F91FF90EF90DF90CF90F9
:101BF000BF90AF900895809590958C0D9D1DC5CF99
:101C000081E0CD2831F05F3F19F481E04F3F09F0CA
:101C100080E080FD24C081E08E25F82FF170DF2E5A
:101C200080FF3FC080915F012091600136E0821308
:101C300018C04D875E878D859E850E943B12292F97
:101C400022952F70223008F1243030F59F7009F171
:101C5000D80115969C91907FE1F4FB2CBACF80E0DF
:101C6000DCCF90E0389FF001399FF00D1124EF593F
:101C7000FE4F6181561306C06081461303C0628126
:101C80006E110FC001968770D2CF9F7011F088231C
:101C900021F3805E883008F3C8010E944D0CBD2CF2
:101CA000DCCFEE2009F495CF80919601816080937E
:101CB0009601F12C8ECF651312C0341310C0E110C1
:101CC0000EC0F8018583C8010E944D0C86E0F80122
:101CD000A1E9B1E001900D928A95E1F741C04D87ED
:101CE0005E878D859E850E94960C882309F4C8C066
:101CF000EE2009F4C5C080919601803270F02091E9
:101D000091013091920138872F831986DB86CA862C
:101D10008C87CE0107960E944D0C86E0F801A1E960
:101D2000B1E001900D928A95E1F70E94130D0E9497
:101D3000050DFF24F3944DCF911115C07C2DD98A48
:101D4000C88A6E2D89890E94C50C81E991E00E94A4
:101D50004D0C86E0E1E9F1E0DF011D928A95E9F79B
:101D60000E94050D36CF651312C0341310C0E11068
:101D70000EC0F8018583C8010E944D0CE1E9F1E035
:101D800086E0DF011D928A95E9F7FA2C22CF4D8774
:101D90005E878D859E850E94960C882309F470C00D
:101DA000EE2009F46DC080919601803208F4B5CF21
:101DB00020919101309192013A8329831B82DD8227
:101DC000CC828E83CE010196A6CFC816D90638F1F3
:101DD000F601E81BF90BCF01F12C883C910508F0C6
:101DE0003DC0FE2CEE2009F44BC0651326C0341311
:101DF00024C08091960180FD17C0982F907FA1F09C
:101E0000D80115968C931597903F09F45CCF982FC5
:101E1000907F905F8F70892B15968C9354CF80950F
:101E200090958C0D9D1DD8CF86E0F801A1E9B1E019
:101E300001900D928A95E1F7CCCE4D875E878D8516
:101E40009E850E94960C811168CF809196018160D9
:101E500080939601C8010E944D0CBBCE7C2DD98A7F
:101E6000C88A6E2D89890E94C50C73CFEE2041F07F
:101E70004D875E878D859E850E94960C81114DCF82
:101E8000C8010E944D0C55CF1F93CF93DF93CDB760
:101E9000DEB72C970FB6F894DEBF0FBECDBF4F83D1
:101EA000588769877A878B879C87CE0107960E941F
:101EB0007E0D882309F442C09F8188852A853B8551
:101EC000232B39F08F3F19F481E09F3F19F080E018
:101ED00001C081E080FD08C04F81588569857A8501
:101EE0008B859C850E94D40C16E080915F019091B7
:101EF0006001891709F467C0819FC00111248F59BF
:101F00009E4F0E947E0D882309F45DC0E0915F0121
:101F10001E9FF0011124EF59FE4F408151816281D3
:101F20007381848195810E94D40C80915F0190E03F
:101F300001968770992780935F01D7CF86E0FE01D5
:101F40003796DE01119601900D928A95E1F79F81F7
:101F500088852A853B85232B39F08F3F19F481E052
:101F60009F3F19F080E001C081E080FDBDCF20914E
:101F7000600130E0C90101968770992740915F01A7
:101F80004817190699F096E0929FD001939FB00DE3
:101F90001124AF59BE4FFE01319601900D929A95D2
:101FA000E1F7809360010E94E40C9ECF0E94920CA6
:101FB0001092600110925F0186E0E1E9F1E0DF013B
:101FC0001D928A95E9F72C960FB6F894DEBF0FBEE6
:101FD000CDBFDF91CF911F910895EF92FF920F93A4
:101FE0001F93CF93DF938C01892B81F0F12CEE248A
:101FF000E394E8012196F8018491843770F48430E9
:1020000008F05FC08130B1F08230A1F1DF91CF9153
:102010001F910F91FF90EF900895853709F44CC000
:1020200008F43DC09CE7980F903780F78F770E94A7
:10203000AD0949C00E5F1F4FFE01849190E2980FD9
:10204000983060F48770FE2D01C0FF0F8A95EAF783
:102050008F2F0E943A130E94611302C00E94D10880
:102060008F2D815030F2EFE9FFE03197F1F700C09A
:102070000000F7CF0E5F1F4FFE01849190E2980F92
:10208000983050F48770FE2D01C0FF0F8A95EAF753
:102090008F2F0E944013DFCF0E94AD09E1CF0E5F6A
:1020A0001F4FFE01C491C150D8F28FE99FE0019704
:1020B000F1F700C00000F7CF0E5F1F4FFE01F49054
:1020C000CFCF0E94D1088E01CBCF08956093AA0193
:1020D0007093AB018093AC019093AD010C947E0C96
:1020E0000F931F930091AA011091AB012091AC01B5
:1020F0003091AD01DC01CB01802B912BA22BB32BB6
:102100008093AA019093AB01A093AC01B093AD0171
:102110001F910F910C947E0C0F931F930091AA01B5
:102120001091AB012091AC013091AD01DC01CB01EC
:1021300080239123A223B3238093AA019093AB0120
:10214000A093AC01B093AD011F910F910C947E0C44
:102150000F931F930091AA011091AB012091AC0144
:102160003091AD01DC01CB0180279127A227B32755
:102170008093AA019093AB01A093AC01B093AD0101
:102180001F910F910C947E0C1092A6011092A70142
:102190001092A8011092A9010C947E0C41E050E02D
:1021A00060E070E004C0440F551F661F771F8A95DA
:1021B000D2F74093A6015093A7016093A8017093B2
:1021C000A9010C947E0C41E050E060E070E004C096
:1021D000440F551F661F771F8A95D2F78091A6017D
:1021E0009091A701A091A801B091A901842B952BF2
:1021F000A62BB72B8093A6019093A701A093A801CB
:10220000B093A9010C947E0C41E050E060E070E0D6
:1022100004C0440F551F661F771F8A95D2F740955B
:102220005095609570958091A6019091A701A0911D
:10223000A801B091A90184239523A623B7238093F5
:10224000A6019093A701A093A801B093A9010C94B3
:102250007E0C41E050E060E070E004C0440F551F88
:10226000661F771F8A95D2F78091A6019091A701EA
:10227000A091A801B091A90184279527A627B72787
:102280008093A6019093A701A093A801B093A90100
:102290000C947E0C0F931F930091A6011091A7013F
:1022A0002091A8013091A901DC01CB01802B912B59
:1022B000A22BB32B8093A6019093A701A093A80112
:1022C000B093A9011F910F910C947E0C0F931F9353
:1022D0000091A6011091A7012091A8013091A901B8
:1022E000DC01CB0180239123A223B3238093A60199
:1022F0009093A701A093A801B093A9011F910F91FA
:102300000C947E0C0F931F930091A6011091A701CE
:102310002091A8013091A901DC01CB0180279127F0
:10232000A227B3278093A6019093A701A093A801A9
:10233000B093A9011F910F910C947E0C0895292F41
:10234000220F920F890F982F977071E001C0770FBD
:102350009A95EAF786958695869525E0829FC00135
:10236000112450E040E0A62FB0E0FC01E40FF51F7F
:10237000E956FE4F60819D01042E02C036952795D7
:102380000A94E2F721702195262727232627208308
:102390004F5F5F4F4530510541F70895292F220FB8
:1023A000920F890F982F977086958695869545E0B0
:1023B000849F9001112470E060E080E0F901E60F55
:1023C000F71FE956FE4F408150E0092E02C0569596
:1023D00047950A94E2F741705527062E01C0440F35
:1023E0000A94EAF7842B6F5F7F4F6530710531F7F0
:1023F0000895BF92CF92DF92EF92FF920F931F93B7
:10240000CF93DF938C01C090A601D090A701E090FC
:10241000A801F090A9018091AA019091AB01A0912F
:10242000AC01B091AD01C82AD92AEA2AFB2ACFE132
:10243000D0E0BC2ED701C6010C2E04C0B695A795DE
:10244000979587950A94D2F780FD0EC0219788F75B
:10245000B12C8B2DDF91CF911F910F91FF90EF90B9
:10246000DF90CF90BF900895B8018C2F0E944F0449
:10247000019761F3EECFCF93DF93EC010E94F91146
:10248000BE01DF91CF910C944F041F93CF93DF9344
:10249000EB0190915E01992331F0CB01DF91CF9157
:1024A0001F910C943B12882379F0CB010E94F91103
:1024B000182F682FCE010E949F11BE01812FDF913E
:1024C000CF911F910C944F04CB010E94CE11182F75
:1024D000F4CF8091AE01859585958595089580917D
:1024E000AE018770089598E0899F90011124622BB6
:1024F0006093AE010C94E3109091AE018095892316
:102500008093AE01282F277061F4282F082E000C2D
:10251000330B9217130629F08595859585950C94B4
:10252000041108959091AE01977081E009F480E064
:102530000895909112019923E1F09091040297FF80
:1025400018C0E82FE695E695E695EF3139F1209130
:10255000000130910101E20FF32FF11D877021E09E
:1025600030E001C0220F8A95EAF78181822B8183B6
:1025700008952091000130910101F90132969FEFF9
:1025800040E05191851751F09F3F19F4511101C05E
:10259000942F4F5F4E31A9F79F3F09F40895290FFB
:1025A000311D97FD3A95F9018283089590911201AA
:1025B0009923F1F09091040297FF1AC0E82FE69555
:1025C000E695E695EF3129F1209100013091010166
:1025D000E20FF32FF11D282F277081E090E001C05A
:1025E000880F2A95EAF78095918189238183089540
:1025F0002091000130910101F9013296205E3F4F98
:102600009191891303C0DF0111971C92E217F30720
:10261000B9F7089581E090E0E0910001F0910101A7
:10262000E80FF91F1082019680329105A9F70895ED
:102630009091D201892B8093D2010895982F909583
:102640008091D20189238093D20108951092D20102
:1026500008959091D101892B8093D1010895982FED
:1026600090958091D10189238093D1010895109292
:10267000D10108959091D001892B8093D0010895C4
:10268000982F90958091D00189238093D00108954F
:102690001092D00108958093AF0108951092AF0178
:1026A00008952091000130910101F9013196205ED9
:1026B0003F4F80E0919191118F5FE217F307D1F7BF
:1026C0000895E0910001F09101018091D201808391
:1026D000E0910001F091010180819091D101892B5D
:1026E0008083E0910001F091010180819091D001FF
:1026F000892B80839091AF01992361F0E0910001D3
:10270000F09101018081892B80830E9451138111F6
:102710001092AF0180910001909101010C94B507D6
:102720006DEE7EEF90E080E00E944A2160E082E062
:1027300090E00E94382160E083E090E00E94382120
:1027400060E084E090E00E94382160E085E090E065
:102750000E94382160E086E090E00C94382190E0FF
:1027600080E00E94322121E08D3E9E4F09F020E062
:10277000822F089582E090E00C942A21682F82E055
:1027800090E00C94382183E090E00C942A21682F8B
:1027900083E090E00C94382184E090E00C942A21AE
:1027A000682F84E090E00C94382186E090E00C944F
:1027B0002A21682F86E090E00C94382180910B024A
:1027C000843051F11092D40188E190E020E40FB6FA
:1027D000F894A895809360000FBE2093600080E07D
:1027E0000E94020480E00E94300483B7817F8460ED
:1027F00083BF83B7816083BF7894889583B78E7FCA
:1028000083BF0FB6F894A89580916000886180938B
:102810006000109260000FBE089508950895CF9350
:102820000E940D140E94FF060E940E14C0E08C2F1F
:102830000E949D07811105C0CF5FC630C1F7CF91BF
:10284000089581E0FCCF0E94920C0E944F180E94D4
:10285000A9070C9430041F920F920FB60F92112407
:102860008F939F93AF93BF938091D401811113C035
:102870008091000290910102A0910202B0910302A6
:102880004196A11DB11D8093000290930102A09377
:102890000202B0930302BF91AF919F918F910F906D
:1028A0000FBE0F901F90189582E084BD93E095BDF8
:1028B0009AEF97BD80936E0008952FB7F89480919A
:1028C000000290910102A0910202B09103022FBF79
:1028D0000895CF92DF92EF92FF920F931F932FB73D
:1028E000F8944091000250910102609102027091AF
:1028F00003022FBF6A017B01EE24FF248C0130E02C
:1029000020E0C016D106E206F30650F0481B590B32
:10291000CA011F910F91FF90EF90DF90CF90089523
:1029200041505109F3CF1F920F920FB60F9211240D
:102930008F939F93AF93BF93809100029091010278
:10294000A0910202B09103020196A11DB11D8093D6
:10295000000290930102A0930202B0930302BF9180
:10296000AF919F918F910F900FBE0F901F90189570
:102970000E94D01CF8942FEF87EA91E62150804006
:102980009040E1F700C0000087E090EBDC0180930D
:10299000140290931502A0931602B093170288E1D7
:1029A0009CE00FB6F894A895809360000FBE9093BA
:1029B0006000FFCFCF92DF92EF92FF920F931F93B1
:1029C000CF93C0E0E82EF12C8C2F0E949D0710E0E1
:1029D00000E0C82ED12CC601002E02C09595879527
:1029E0000A94E2F780FD11C00F5F1F4F03301105FD
:1029F00091F7CF5FC63041F780E0CF911F910F91E3
:102A0000FF90EF90DF90CF900895602F7C2F80E0B3
:102A10000E943304E816F90639F781E0EECFCF9330
:102A2000C82F8CE20E94DA14882321F08C2FCF91DA
:102A30000C94DA1480E0CF910895CF930E94AF13E5
:102A4000811102C00E949013C5E6C15009F0D1C0A7
:102A500089E20E940F158111F8C08AE20E940F15C9
:102A600081110E94901385E00E940F1581110E9430
:102A7000B8140E94BA138093D30187E00E940F1507
:102A8000882371F08BE10E940F15882309F4BAC0E6
:102A90009091D301892F8D7F91FF82608093D30124
:102AA0008091D3010E94BE130E94CC1390E09093BA
:102AB00005028093040280EE0E940F15882341F0E6
:102AC00090910402892F8E7F90FF81608093040291
:102AD00089E30E940F15882341F090910402892F09
:102AE0008D7F91FF82608093040282EE0E940F1519
:102AF000882341F090910402892F8B7F92FF84609C
:102B00008093040286EE0E940F15882341F0909175
:102B10000402892F877F93FF88608093040283EEED
:102B20000E940F15882341F090910402892F8F7E17
:102B300094FF80618093040285E30E940F1588232F
:102B400041F090910402892F8F7D95FF80628093E0
:102B5000040281E30E940F15882341F09091040242
:102B6000892F8F7B96FF80648093040281E10E940D
:102B70000F15882341F090910402892F97FB87F964
:102B8000805880930402809104020E94D01387E24F
:102B90000E940F15C82F8EE10E940F158111C2608F
:102BA0008FE10E940F158111C46080E20E940F1511
:102BB0008111C86081E20E940F158111C06182E21B
:102BC0000E940F158111C06283E20E940F158111CE
:102BD000C06484E20E940F15882389F1C0688C2F9D
:102BE0000E94C7136C2F70E090E080E0CF910C94AE
:102BF00066100E94FF068FE39CE90197F1F700C081
:102C0000000023CF8EE00E940F15882339F09091A9
:102C1000D301892F8B7F92FF846040CF80E10E9497
:102C20000F159091D301882329F0892F877F93FF77
:102C3000886034CF892F8E7F90FF81602FCFC111A4
:102C4000CECF0E94C313682FCECFCF91089580912D
:102C5000D70180FF12C06091050185E0689FB00137
:102C60001124759567957595679560387105A8F578
:102C700061157105A1F1862F089581FF09C060914A
:102C8000050185E0689FB001112475956795EDCF2A
:102C900082FF07C06091050185E0689FB0011124A3
:102CA000E4CF2091D8012223A9F0909104016091F2
:102CB000050185E0689FB00111242917B0F6269F11
:102CC000A001279F500D1124692F70E0CA010E94B6
:102CD000FC20CBCF65E070E0CECF8FE7089581E098
:102CE00008958091D70180FF0CC06091030170E0CE
:102CF00075956795759567956115710549F1862FED
:102D0000089581FF06C06091030170E07595679595
:102D1000F3CF6091030182FD0BC09091D8019923FC
:102D2000A1F06091020180910301961738F0682F9D
:102D300070E06038710500F38FE70895899FC00146
:102D4000112470E00E94FC20F4CF61E070E0D7CF46
:102D500081E00895803F31F40E9427168195809389
:102D6000DB010895813F19F40E942716F8CF823FB6
:102D700031F40E94271681958093DA010895833FEC
:102D800019F40E942716F8CF893F29F40E94711682
:102D90008093DC0108958A3F21F40E947116819589
:102DA000F7CF8B3F31F40E94711681958093DD013E
:102DB00008958C3F19F40E947116F8CF843F31F4C6
:102DC0008091D90181608093D9010895853F21F4D4
:102DD0008091D9018260F7CF863F21F48091D9019B
:102DE0008460F1CF873F21F48091D9018860EBCFD7
:102DF000883F21F48091D9018061E5CF8D3F31F486
:102E00008091D70181608093D70108958E3F21F48E
:102E10008091D7018260F7CF8F3FB9F78091D701BA
:102E20008460F1CF803FC1F48091DB0187FD109277
:102E3000DB018091DA0181110EC08091DB018111EB
:102E40000AC08091DC01811106C08091DD018111F1
:102E500002C01092D8010895813F29F48091DB01CE
:102E600018162CF3E6CF9091DA01823F29F497FFF0
:102E7000E0CF1092DA01DDCF833F19F41916CCF3BD
:102E8000D8CF893F39F48091DC01181694F610925E
:102E9000DC01CFCF8A3F29F48091DC0187FFC9CFC5
:102EA000F6CF8B3F39F48091DD0187FFC2CF1092BE
:102EB000DD01BFCF8C3F29F48091DD011816BCF3F2
:102EC000B8CF843F31F48091D9018E7F8093D901AE
:102ED000B0CF853F21F48091D9018D7FF7CF863F18
:102EE00021F48091D9018B7FF1CF873F21F480912C
:102EF000D901877FEBCF883F21F48091D9018F7E64
:102F0000E5CF8D3F31F48091D7018E7F8093D7013B
:102F100090CF8E3F21F48091D7018D7FF7CF8F3FE7
:102F200009F087CF8091D7018B7FF0CF89ED91E0B9
:102F30000E94C0070E945D149093D6018093D50132
:102F400008951F93CF93DF938091D5019091D6017F
:102F50000E946914AC019091D8012091060130E0E3
:102F6000911106C0209107018AE0289F9001112449
:102F70004217530780F08091DA01C091DB01109174
:102F8000DC01D091DD0181110AC0C11178C011119D
:102F900076C0D11174C0DF91CF911F9108959F3FEA
:102FA00019F09F5F9093D801181624F40E942716F9
:102FB0008093DA018091DA0187FF05C00E9427160D
:102FC00081958093DA011C1624F40E9427168093C1
:102FD000DB018091DB0187FF05C00E9427168195E8
:102FE0008093DB016091DA01662331F1C091DB014E
:102FF000CC2311F1062E000C770B880B990B0E9445
:10300000032023E333E343E35FE30E9467200E944E
:10301000CB1F6093DA016C2FCC0F770B880B990BC9
:103020000E94032023E333E343E35FE30E9467202E
:103030000E94CB1F6093DB01111624F40E947116CD
:103040008093DC018091DC0187FF05C00E9471162E
:1030500081958093DC011D1624F40E9471168093E3
:10306000DD018091DD0187FF05C00E947116819509
:103070008093DD01DF91CF911F910C9496179F3FB4
:1030800009F08FCFA0CF85E0E9EDF1E0DF011D92DF
:103090008A95E9F71092D8011092D70108950E94FD
:1030A000AF13811102C00E9490130E94D513809328
:1030B000060280FF03C086950C94020480E0FCCFDA
:1030C00080910602982F9695933030F49F5F990F68
:1030D0008170892B80930602809106028160809323
:1030E00006020E94D9138091060286950C94020470
:1030F00080910602982F9E7F79F08250809306027D
:103100008E7F91E009F490E08091060290FB80F9B7
:10311000809306020E94D9138091060286950C9432
:10312000020490910602892F8E7F90FF8160809328
:1031300006020E94D9138091060280FF03C0869583
:103140000C94020480E0FCCF90910602892F8695B2
:103150008F5F8F7791708430B8F4880F892B8093BC
:103160000602809106028E7F91E009F490E0809142
:10317000060290FB80F9809306020E94D913809189
:10318000060286950C94020490930602EACF909171
:103190000602292F26958227880F9170982B9093ED
:1031A00006029E7F21E009F420E08091060220FBC8
:1031B00080F9809306020E94D913809106028695B9
:1031C0000C9402048091FE010895CF93DF9300D008
:1031D0001F92CDB7DEB79C0180910B02843019F5A8
:1031E00093E099833B832A839093E9008FEF90913A
:1031F000E800815095FD06C095ED9A95F1F7000025
:103200008111F5CF8091E80085FF0DC050E040E0CE
:1032100063E070E0CE0101960E94401B8091E800BF
:103220008E778093E8000F900F900F90DF91CF91F1
:103230000895CF93DF9300D01F92CDB7DEB72091D2
:103240000B02243031F522E02983805891099B83B9
:103250008A8383E08093E9008FEF9091E8008150AA
:1032600095FD06C095ED9A95F1F700008111F5CF17
:103270008091E80085FF0DC050E040E063E070E021
:10328000CE0101960E94401B8091E8008E778093CA
:10329000E8000F900F900F90DF91CF9108959C015F
:1032A00080910B028430F9F482E08093E9009FEF73
:1032B0008091E800915085FD06C085ED8A95F1F773
:1032C00000009111F5CF8091E80085FF0CC050E01F
:1032D00040E065E070E0C9010E94401B8091E80079
:1032E0008E778093E8000895CF93DF93EC0180916F
:1032F0000B028430F1F4909112019923E9F090913E
:10330000040297FF19C08093E9008FEF9091E800C5
:10331000815095FD06C095E19A95F1F70000811165
:10332000F5CF8091E80050E040E060E270E085FD7C
:103330001AC0DF91CF91089581E08093E9008FEF6B
:103340009091E800815095FD06C095ED9A95F1F7B2
:1033500000008111F5CF8091E80085FFEACF50E0B1
:1033600040E068E070E0CE010E94401B8091E800E0
:103370008E778093E80080E2FE01AEEDB1E001902F
:103380000D928A95E1F7D5CF80910A02811109C08B
:103390000E94D01C0E942D1D8091E20084608093C9
:1033A000E200089510920A020895089508950C9479
:1033B000231442E061EC81E00E944E1C42E061EC8B
:1033C00082E00E944E1C42E061EC83E00E944E1CB1
:1033D00042E261EC84E00C944E1C80910D0283303B
:1033E00009F455C030F4813071F1823009F491C094
:1033F00008958A3009F47DC08B3009F463C08930A8
:1034000009F044C080910C02813209F03FC08091E4
:10341000100290911102009711F00397B9F5809175
:10342000E800877F8093E8008091E80082FF2AC04F
:103430008091F1008093FE018091E8008B7780936A
:10344000E8000C94821C80910C02813AF9F480917E
:10345000E800877F8093E80080911002909111022C
:10346000892B61F460E28EED91E070E00E948F1B89
:103470008091E8008B778093E800089560E090E009
:1034800080E0F3CF80910B028111CECF089580911F
:103490000C02813AD9F78091100290911102892B88
:1034A000A9F78091E800877F8093E8008091E80089
:1034B00080FFFCCF809112018093F1008091E800A1
:1034C0008E77BDCF80910C02813201F7809110027E
:1034D00090911102892BD1F68091E800877F80932B
:1034E000E8000E94821C80910E02809312010C94CD
:1034F000920C80910C02813249F68091E800877F1E
:103500008093E8000E94821C80910F028093FF014B
:10351000089580910C02813A09F0B8CF8091E800BB
:10352000877F8093E8008091E80080FFFCCF809146
:10353000FF01C2CF84B7877F84BF0FB6F894A895E8
:1035400080916000886180936000109260000FBEDF
:1035500080E880936100109261000E94F8070E9449
:10356000D01C0E942D1D8091E20084608093E200B7
:1035700078940E94AF1F0E94FA0788E091E00E94B1
:10358000A40780910B02853019F00E940208F9CF40
:103590000E94DE1380910902882399F30E940F1480
:1035A000882379F30E942A1BECCF292F332723305D
:1035B000310579F158F421303105F1F0223031052F
:1035C00019F190E080E030E020E01AC021323105AE
:1035D00099F122323105A9F7643098F770E0FB01C8
:1035E000EE0FFF1FE05EFE4F20813181645E7E4F53
:1035F000FB01808190E004C082E190E029E833E0A3
:10360000FA013183208308958DE690E02CE133E0C8
:10361000F7CF99278130910561F028F0029789F65C
:10362000ECEEF2E002C0E8E1F3E0849190E09F016B
:10363000E7CFE0E0F3E0F9CF643008F0C2CFE62F47
:10364000F0E0EE0FFF1FE85DFE4F2081318189E041
:1036500090E0D6CF80E189BD82E189BD09B400FE4A
:10366000FDCF8091D8008F7D8093D8008091E000BD
:1036700082608093E0008091E00081FDFCCF08959E
:10368000AF92BF92CF92DF92FF920F931F93CF938F
:10369000DF936C01EB018A010E94A11CF82E8111BD
:1036A00023C00115110539F0F80180819181C81BF3
:1036B000D90BC80ED91EB12CA12C2097A9F080914E
:1036C000E80085FD22C08091E8008E778093E800B5
:1036D00001151105A1F0F80180819181A80EB91E94
:1036E000B182A08285E0F82E8F2DDF91CF911F91BE
:1036F0000F91FF90DF90CF90BF90AF9008950E9400
:10370000A11C8823D1F2F82EEFCFF60181916F0131
:103710008093F1002197FFEFAF1ABF0ACECFFC01D3
:10372000809112029091130286179707A0F06115FD
:10373000710529F49091E8009E779093E80090E05D
:103740006115710551F4911108C08091E80082FF64
:1037500035C080E00895BC01F2CF80910B02882330
:10376000C9F18530C9F18091E80083FD31C08091B5
:10377000E80082FDEACF8091E80080FFE1CF209150
:10378000F3008091F200322F282F6115710519F096
:103790002830310558F091E02830310509F090E0EB
:1037A0002091E8002E772093E800CACF8191809382
:1037B000F100615071092F5F3F4FE7CF80910B02FD
:1037C000882341F0853041F08091E80083FFBDCF30
:1037D00081E0089582E0089583E00895FC018091DE
:1037E00012029091130286179707A0F061157105D8
:1037F00029F48091E8008E778093E80090E06115CD
:10380000710551F4911108C08091E80082FF36C023
:1038100080E00895BC01F2CF80910B028823D1F1A2
:103820008530D1F18091E80083FD32C08091E800BD
:1038300082FDEACF8091E80080FFE1CF2091F30084
:103840008091F200322F282F6115710519F0283070
:10385000310558F091E02830310509F090E0809171
:10386000E8008E778093E800CACF84918093F100BE
:103870003196615071092F5F3F4FE6CF80910B0267
:10388000882341F0853041F08091E80083FFBCCF70
:1038900081E0089582E0089583E00895982F97309D
:1038A00028F08F708093E90081E008959093E900FB
:1038B000242F762F50E0981731F07091EC00209172
:1038C000ED005091F00021FD02C09F5FE8CF3091E4
:1038D000EB003E7F3093EB003091ED003D7F309365
:1038E000ED003091EB0031603093EB007093EC0011
:1038F0002093ED005093F0002091EE0027FDE5CFDE
:1039000080E0089580910C0287FF13C08091E80049
:1039100082FF06C08091E8008B778093E80004C0A6
:1039200080910B028111F2CF089580910B028823C0
:10393000D9F38091E80080FFF8CF8091E8008E777E
:10394000ECCF2091E4003091E50085E69091EC0009
:1039500090FF06C09091E80090FF06C080E00895B7
:103960009091E80092FDFACF90910B02992391F08B
:10397000953091F09091EB0095FD10C04091E400DE
:103980005091E5002417350709F381509A01F1F6AB
:1039900084E0089582E0089583E0089581E0089529
:1039A0000E943E1D0E94461DE0EEF0E08081816095
:1039B0008083E8EDF0E080818F77808319BCA7EDEC
:1039C000B0E08C918E7F8C9380818F7E808310926B
:1039D0000A0208950F931F93CF93DF930E943E1D19
:1039E0000E94461DC8EDD0E088818F77888388814A
:1039F0008068888388818F7D888319BC10920B0230
:103A000010920702109209021092080200EE10E0D4
:103A1000F80180818B7F808388818160888342E088
:103A200060E080E00E944E1CE1EEF0E080818E7F3D
:103A30008083E2EEF0E08081816080838081886015
:103A40008083F80180818E7F808388818061888374
:103A5000DF91CF911F910F910895E8EDF0E0808103
:103A60008F7E8083E7EDF0E080818160808384E059
:103A700082BF81E080930A020C94EA1CE8EDF0E03A
:103A800080818E7F80831092E20008951092DA0088
:103A90001092E10008951F920F920FB60F92112419
:103AA0002F933F934F935F936F937F938F939F9346
:103AB000AF93BF93EF93FF938091E10082FF0BC020
:103AC0008091E20082FF07C08091E1008B7F8093AC
:103AD000E1000E94AE1F8091DA0080FF19C0809142
:103AE000D80080FF15C08091DA008E7F8093DA00C5
:103AF0008091D90080FF94C080E189BD82E189BDB9
:103B000009B400FEFDCF81E080930B020E94C4192E
:103B10008091E10080FF19C08091E20080FF15C014
:103B20008091E2008E7F8093E2008091E2008061CC
:103B30008093E2008091D80080628093D80019BC05
:103B400085E080930B020E94D6198091E10084FFEA
:103B500029C08091E20084FF25C080E189BD82E117
:103B600089BD09B400FEFDCF8091D8008F7D809380
:103B7000D8008091E1008F7E8093E1008091E20087
:103B80008F7E8093E2008091E20081608093E2006A
:103B900080910702882309F449C084E080930B02D6
:103BA0000E94D7198091E10083FF29C08091E20033
:103BB00083FF25C08091E100877F8093E10082E050
:103BC00080930B02109207028091E1008E7F809318
:103BD000E1008091E2008E7F8093E2008091E2001C
:103BE00080618093E20042E060E080E00E944E1C31
:103BF0008091F00088608093F0000E94D519FF91B9
:103C0000EF91BF91AF919F918F917F916F915F9154
:103C10004F913F912F910F900FBE0F901F901895CD
:103C200019BC10920B020E94D21972CF8091E3004E
:103C300087FD02C081E0B2CF83E0B0CF1F920F9228
:103C40000FB60F9211242F933F934F935F936F936F
:103C50007F938F939F93AF93BF93CF93EF93FF93F4
:103C6000C091E900CF708091EC001092E900809142
:103C7000F000877F8093F00078940E945A1E109283
:103C8000E9008091F00088608093F000C093E90023
:103C9000FF91EF91CF91BF91AF919F918F917F91C4
:103CA0006F915F914F913F912F910F900FBE0F90A9
:103CB0001F9018951F93CF93DF93CDB7DEB7AA97C8
:103CC0000FB6F894DEBF0FBECDBFECE0F2E08091FE
:103CD000F100819322E0E431F207C9F70E94ED1967
:103CE0008091E80083FF42C080910C0290910D0208
:103CF0009A3008F03BC0E92FF0E0EF57F14E0C94FA
:103D000010218B1EAF1EB61EAF1EB61E0A1F2C1F23
:103D1000B61E811F8E1F803879F0823839F5809168
:103D200010028F708093E9008091EB0085FB88275B
:103D300080F91092E90006C0809108029091090272
:103D4000911182609091E800977F9093E8008093B2
:103D5000F1001092F1008091E8008E772DC0282F9D
:103D60002D7F21F48823D1F0823059F18091E80031
:103D700083FF0AC08091E800877F8093E8008091EC
:103D8000EB0080628093EB00AA960FB6F894DEBF3A
:103D90000FBECDBFDF91CF911F91089580910E028C
:103DA000813021F7933009F080E08093090210926E
:103DB000E9008091E800877F8093E8000E94821CE0
:103DC000D5CF80910E028111F2CF809110028F70B9
:103DD00069F28093E9002091EB0020FFE8CF933057
:103DE00031F48091EB0080628093EB00E0CF909102
:103DF000EB0090619093EB0021E030E001C0220FD6
:103E00008A95EAF72093EA001092EA008091EB008D
:103E10008860EACF8111AACF10910E021F7780919E
:103E2000E3008078812B8093E3008091E800877F16
:103E30008093E8000E94821C8091E80080FFFCCF04
:103E40008091E30080688093E30083E0111101C05A
:103E500082E080930B028ACF8058823008F086CFB0
:103E600080910E0290910F028C3D23E09207A1F504
:103E700083E08A838AE289834FB7F894DE01139640
:103E800020E03EE051E2E32FF0E050935700E49150
:103E900020FF03C0E295EF703F5FEF708E2F90E040
:103EA000EA30C0F0C7968D939D932F5F243159F768
:103EB0004FBF8091E800877F8093E8006AE270E05E
:103EC000CE0101960E948F1B8091E8008B77809332
:103ED000E8004CCFC096E7CFAE014F5F5F4F6091D7
:103EE00010020E94D51ABC01892B09F43FCF909192
:103EF000E800977F9093E80089819A810E94EE1BE9
:103F0000E3CF803809F032CF8091E800877F80933B
:103F1000E800809107028093F1001DCF811126CF28
:103F200090910E02923008F021CF8091E800877FB7
:103F30008093E800909307020E94821C8091070200
:103F4000882331F084E080930B020E94D9190ECFB0
:103F50008091E30087FDF6CF81E0F5CF0895CF9300
:103F600080910B02882399F0C091E900CF70809175
:103F7000EC0080FD0EC080E0C82B1092E90080911B
:103F8000E80083FD0E945A1ECF70C093E900CF91D4
:103F9000089580E8F1CF0E94D21F6894B1110C946B
:103FA000612008950E94462088F09F5798F0B92F0D
:103FB0009927B751B0F0E1F0660F771F881F991F5E
:103FC0001AF0BA95C9F714C0B13091F00E94602080
:103FD000B1E008950C946020672F782F8827B85F90
:103FE00039F0B93FCCF3869577956795B395D9F7B6
:103FF0003EF490958095709561957F4F8F4F9F4FC0
:104000000895E89409C097FB3EF4909580957095CB
:1040100061957F4F8F4F9F4F9923A9F0F92F96E914
:10402000BB279395F695879577956795B795F11189
:10403000F8CFFAF4BB0F11F460FF1BC06F5F7F4F26
:104040008F4F9F4F16C0882311F096E911C0772338
:1040500021F09EE8872F762F05C0662371F096E841
:10406000862F70E060E02AF09A95660F771F881F10
:10407000DAF7880F9695879597F9089557FD905828
:10408000440F551F59F05F3F71F04795880F97FB1C
:10409000991F61F09F3F79F08795089512161306D6
:1040A0001406551FF2CF4695F1DF08C01616170605
:1040B0001806991FF1CF869571056105089408953A
:1040C000E894BB2766277727CB0197F908950E94CC
:1040D0007A200C94EB200E94DD2038F00E94E4202E
:1040E00020F0952311F00C94D4200C94DA201124A4
:1040F0000C9461200E943E2070F3959FC1F3950FB0
:1041000050E0551F629FF001729FBB27F00DB11D5B
:10411000639FAA27F00DB11DAA1F649F6627B00DEB
:10412000A11D661F829F2227B00DA11D621F739FD4
:10413000B00DA11D621F839FA00D611D221F749FE2
:104140003327A00D611D231F849F600D211D822F29
:10415000762F6A2F11249F5750409AF0F1F0882350
:104160004AF0EE0FFF1FBB1F661F771F881F91507D
:104170005040A9F79E3F510580F00C94D4200C9438
:1041800061205F3FE4F3983ED4F386957795679579
:10419000B795F795E7959F5FC1F7FE2B880F911DA7
:1041A0009695879597F9089597F99F6780E870E04D
:1041B00060E008959FEF80EC089500240A9416169D
:1041C000170618060906089500240A941216130605
:1041D000140605060895092E0394000C11F4882393
:1041E00052F0BB0F40F4BF2B11F460FF04C06F5FAF
:1041F0007F4F8F4F9F4F089597FB072E16F4009423
:1042000007D077FD09D00E94162107FC05D03EF4A7
:10421000909581959F4F0895709561957F4F089572
:10422000EE0FFF1F0590F491E02D0994AA1BBB1B14
:1042300051E107C0AA1FBB1FA617B70710F0A61BA6
:10424000B70B881F991F5A95A9F780959095BC01C7
:10425000CD010895F999FECF92BD81BDF89A9927B5
:1042600080B50895A8E1B0E042E050E00C945221FE
:10427000262FF999FECF92BD81BDF89A019700B41F
:10428000021639F01FBA20BD0FB6F894FA9AF99ABF
:104290000FBE08950196272F0E9439210C943821D2
:1042A000DC01CB01FC01F999FECF06C0F2BDE1BDF6
:1042B000F89A319600B40D9241505040B8F70895E5
:0442C000F894FFCFA0
:1042C400B0012808140A321EE21874194F1919197A
:1042D400E51801F4F5F6946697C63133404D363946
:1042E40057040A04D4039B032E0347036003790392
:00000001FF
